{
  "address": "0x450Ef1898a6b5Fbcb156CcE47293A032a2e13209",
  "abi": [
    {
      "inputs": [
        {
          "internalType": "address",
          "name": "priceFeedAddress",
          "type": "address"
        },
        {
          "internalType": "string",
          "name": "lowSvg",
          "type": "string"
        },
        {
          "internalType": "string",
          "name": "highSvg",
          "type": "string"
        }
      ],
      "stateMutability": "nonpayable",
      "type": "constructor"
    },
    {
      "inputs": [
        {
          "internalType": "address",
          "name": "sender",
          "type": "address"
        },
        {
          "internalType": "uint256",
          "name": "tokenId",
          "type": "uint256"
        },
        {
          "internalType": "address",
          "name": "owner",
          "type": "address"
        }
      ],
      "name": "ERC721IncorrectOwner",
      "type": "error"
    },
    {
      "inputs": [
        {
          "internalType": "address",
          "name": "operator",
          "type": "address"
        },
        {
          "internalType": "uint256",
          "name": "tokenId",
          "type": "uint256"
        }
      ],
      "name": "ERC721InsufficientApproval",
      "type": "error"
    },
    {
      "inputs": [
        {
          "internalType": "address",
          "name": "approver",
          "type": "address"
        }
      ],
      "name": "ERC721InvalidApprover",
      "type": "error"
    },
    {
      "inputs": [
        {
          "internalType": "address",
          "name": "operator",
          "type": "address"
        }
      ],
      "name": "ERC721InvalidOperator",
      "type": "error"
    },
    {
      "inputs": [
        {
          "internalType": "address",
          "name": "owner",
          "type": "address"
        }
      ],
      "name": "ERC721InvalidOwner",
      "type": "error"
    },
    {
      "inputs": [
        {
          "internalType": "address",
          "name": "receiver",
          "type": "address"
        }
      ],
      "name": "ERC721InvalidReceiver",
      "type": "error"
    },
    {
      "inputs": [
        {
          "internalType": "address",
          "name": "sender",
          "type": "address"
        }
      ],
      "name": "ERC721InvalidSender",
      "type": "error"
    },
    {
      "inputs": [
        {
          "internalType": "uint256",
          "name": "tokenId",
          "type": "uint256"
        }
      ],
      "name": "ERC721NonexistentToken",
      "type": "error"
    },
    {
      "anonymous": false,
      "inputs": [
        {
          "indexed": true,
          "internalType": "address",
          "name": "owner",
          "type": "address"
        },
        {
          "indexed": true,
          "internalType": "address",
          "name": "approved",
          "type": "address"
        },
        {
          "indexed": true,
          "internalType": "uint256",
          "name": "tokenId",
          "type": "uint256"
        }
      ],
      "name": "Approval",
      "type": "event"
    },
    {
      "anonymous": false,
      "inputs": [
        {
          "indexed": true,
          "internalType": "address",
          "name": "owner",
          "type": "address"
        },
        {
          "indexed": true,
          "internalType": "address",
          "name": "operator",
          "type": "address"
        },
        {
          "indexed": false,
          "internalType": "bool",
          "name": "approved",
          "type": "bool"
        }
      ],
      "name": "ApprovalForAll",
      "type": "event"
    },
    {
      "anonymous": false,
      "inputs": [
        {
          "indexed": true,
          "internalType": "uint256",
          "name": "tokenId",
          "type": "uint256"
        },
        {
          "indexed": false,
          "internalType": "int256",
          "name": "highValue",
          "type": "int256"
        }
      ],
      "name": "CreatedNft",
      "type": "event"
    },
    {
      "anonymous": false,
      "inputs": [
        {
          "indexed": true,
          "internalType": "address",
          "name": "from",
          "type": "address"
        },
        {
          "indexed": true,
          "internalType": "address",
          "name": "to",
          "type": "address"
        },
        {
          "indexed": true,
          "internalType": "uint256",
          "name": "tokenId",
          "type": "uint256"
        }
      ],
      "name": "Transfer",
      "type": "event"
    },
    {
      "inputs": [
        {
          "internalType": "address",
          "name": "to",
          "type": "address"
        },
        {
          "internalType": "uint256",
          "name": "tokenId",
          "type": "uint256"
        }
      ],
      "name": "approve",
      "outputs": [],
      "stateMutability": "nonpayable",
      "type": "function"
    },
    {
      "inputs": [
        {
          "internalType": "address",
          "name": "owner",
          "type": "address"
        }
      ],
      "name": "balanceOf",
      "outputs": [
        {
          "internalType": "uint256",
          "name": "",
          "type": "uint256"
        }
      ],
      "stateMutability": "view",
      "type": "function"
    },
    {
      "inputs": [
        {
          "internalType": "uint256",
          "name": "tokenId",
          "type": "uint256"
        }
      ],
      "name": "getApproved",
      "outputs": [
        {
          "internalType": "address",
          "name": "",
          "type": "address"
        }
      ],
      "stateMutability": "view",
      "type": "function"
    },
    {
      "inputs": [
        {
          "internalType": "address",
          "name": "owner",
          "type": "address"
        },
        {
          "internalType": "address",
          "name": "operator",
          "type": "address"
        }
      ],
      "name": "isApprovedForAll",
      "outputs": [
        {
          "internalType": "bool",
          "name": "",
          "type": "bool"
        }
      ],
      "stateMutability": "view",
      "type": "function"
    },
    {
      "inputs": [
        {
          "internalType": "int256",
          "name": "highValue",
          "type": "int256"
        }
      ],
      "name": "mintNft",
      "outputs": [],
      "stateMutability": "nonpayable",
      "type": "function"
    },
    {
      "inputs": [],
      "name": "name",
      "outputs": [
        {
          "internalType": "string",
          "name": "",
          "type": "string"
        }
      ],
      "stateMutability": "view",
      "type": "function"
    },
    {
      "inputs": [
        {
          "internalType": "uint256",
          "name": "tokenId",
          "type": "uint256"
        }
      ],
      "name": "ownerOf",
      "outputs": [
        {
          "internalType": "address",
          "name": "",
          "type": "address"
        }
      ],
      "stateMutability": "view",
      "type": "function"
    },
    {
      "inputs": [
        {
          "internalType": "uint256",
          "name": "",
          "type": "uint256"
        }
      ],
      "name": "s_tokenIdToHighValue",
      "outputs": [
        {
          "internalType": "int256",
          "name": "",
          "type": "int256"
        }
      ],
      "stateMutability": "view",
      "type": "function"
    },
    {
      "inputs": [
        {
          "internalType": "address",
          "name": "from",
          "type": "address"
        },
        {
          "internalType": "address",
          "name": "to",
          "type": "address"
        },
        {
          "internalType": "uint256",
          "name": "tokenId",
          "type": "uint256"
        }
      ],
      "name": "safeTransferFrom",
      "outputs": [],
      "stateMutability": "nonpayable",
      "type": "function"
    },
    {
      "inputs": [
        {
          "internalType": "address",
          "name": "from",
          "type": "address"
        },
        {
          "internalType": "address",
          "name": "to",
          "type": "address"
        },
        {
          "internalType": "uint256",
          "name": "tokenId",
          "type": "uint256"
        },
        {
          "internalType": "bytes",
          "name": "data",
          "type": "bytes"
        }
      ],
      "name": "safeTransferFrom",
      "outputs": [],
      "stateMutability": "nonpayable",
      "type": "function"
    },
    {
      "inputs": [
        {
          "internalType": "address",
          "name": "operator",
          "type": "address"
        },
        {
          "internalType": "bool",
          "name": "approved",
          "type": "bool"
        }
      ],
      "name": "setApprovalForAll",
      "outputs": [],
      "stateMutability": "nonpayable",
      "type": "function"
    },
    {
      "inputs": [
        {
          "internalType": "bytes4",
          "name": "interfaceId",
          "type": "bytes4"
        }
      ],
      "name": "supportsInterface",
      "outputs": [
        {
          "internalType": "bool",
          "name": "",
          "type": "bool"
        }
      ],
      "stateMutability": "view",
      "type": "function"
    },
    {
      "inputs": [
        {
          "internalType": "string",
          "name": "svg",
          "type": "string"
        }
      ],
      "name": "svgToImageURI",
      "outputs": [
        {
          "internalType": "string",
          "name": "",
          "type": "string"
        }
      ],
      "stateMutability": "pure",
      "type": "function"
    },
    {
      "inputs": [],
      "name": "symbol",
      "outputs": [
        {
          "internalType": "string",
          "name": "",
          "type": "string"
        }
      ],
      "stateMutability": "view",
      "type": "function"
    },
    {
      "inputs": [
        {
          "internalType": "uint256",
          "name": "tokenId",
          "type": "uint256"
        }
      ],
      "name": "tokenURI",
      "outputs": [
        {
          "internalType": "string",
          "name": "",
          "type": "string"
        }
      ],
      "stateMutability": "view",
      "type": "function"
    },
    {
      "inputs": [
        {
          "internalType": "address",
          "name": "from",
          "type": "address"
        },
        {
          "internalType": "address",
          "name": "to",
          "type": "address"
        },
        {
          "internalType": "uint256",
          "name": "tokenId",
          "type": "uint256"
        }
      ],
      "name": "transferFrom",
      "outputs": [],
      "stateMutability": "nonpayable",
      "type": "function"
    }
  ],
  "transactionHash": "0x30ab07623afee892c5378d2994a9acf17b5ea5af5fa26e518cd2bc02481fe66b",
  "args": [
    "0x1a81afB8146aeFfCFc5E50e8479e826E7D55b910",
    "<?xml version=\"1.0\" standalone=\"no\"?>\n<svg width=\"1024px\" height=\"1024px\" viewBox=\"0 0 1024 1024\" xmlns=\"http://www.w3.org/2000/svg\">\n  <path fill=\"#333\" d=\"M512 64C264.6 64 64 264.6 64 512s200.6 448 448 448 448-200.6 448-448S759.4 64 512 64zm0 820c-205.4 0-372-166.6-372-372s166.6-372 372-372 372 166.6 372 372-166.6 372-372 372z\"/>\n  <path fill=\"#E6E6E6\" d=\"M512 140c-205.4 0-372 166.6-372 372s166.6 372 372 372 372-166.6 372-372-166.6-372-372-372zM288 421a48.01 48.01 0 0 1 96 0 48.01 48.01 0 0 1-96 0zm376 272h-48.1c-4.2 0-7.8-3.2-8.1-7.4C604 636.1 562.5 597 512 597s-92.1 39.1-95.8 88.6c-.3 4.2-3.9 7.4-8.1 7.4H360a8 8 0 0 1-8-8.4c4.4-84.3 74.5-151.6 160-151.6s155.6 67.3 160 151.6a8 8 0 0 1-8 8.4zm24-224a48.01 48.01 0 0 1 0-96 48.01 48.01 0 0 1 0 96z\"/>\n  <path fill=\"#333\" d=\"M288 421a48 48 0 1 0 96 0 48 48 0 1 0-96 0zm224 112c-85.5 0-155.6 67.3-160 151.6a8 8 0 0 0 8 8.4h48.1c4.2 0 7.8-3.2 8.1-7.4 3.7-49.5 45.3-88.6 95.8-88.6s92 39.1 95.8 88.6c.3 4.2 3.9 7.4 8.1 7.4H664a8 8 0 0 0 8-8.4C667.6 600.3 597.5 533 512 533zm128-112a48 48 0 1 0 96 0 48 48 0 1 0-96 0z\"/>\n</svg>\n",
    "<?xml version=\"1.0\" standalone=\"no\"?>\n<svg width=\"1024px\" height=\"1024px\" viewBox=\"0 0 1024 1024\" xmlns=\"http://www.w3.org/2000/svg\">\n  <path fill=\"#333\" d=\"M512 64C264.6 64 64 264.6 64 512s200.6 448 448 448 448-200.6 448-448S759.4 64 512 64zm0 820c-205.4 0-372-166.6-372-372s166.6-372 372-372 372 166.6 372 372-166.6 372-372 372z\"/>\n  <path fill=\"#E6E6E6\" d=\"M512 140c-205.4 0-372 166.6-372 372s166.6 372 372 372 372-166.6 372-372-166.6-372-372-372zM288 421a48.01 48.01 0 0 1 96 0 48.01 48.01 0 0 1-96 0zm376 272h-48.1c-4.2 0-7.8-3.2-8.1-7.4C604 636.1 562.5 597 512 597s-92.1 39.1-95.8 88.6c-.3 4.2-3.9 7.4-8.1 7.4H360a8 8 0 0 1-8-8.4c4.4-84.3 74.5-151.6 160-151.6s155.6 67.3 160 151.6a8 8 0 0 1-8 8.4zm24-224a48.01 48.01 0 0 1 0-96 48.01 48.01 0 0 1 0 96z\"/>\n  <path fill=\"#333\" d=\"M288 421a48 48 0 1 0 96 0 48 48 0 1 0-96 0zm224 112c-85.5 0-155.6 67.3-160 151.6a8 8 0 0 0 8 8.4h48.1c4.2 0 7.8-3.2 8.1-7.4 3.7-49.5 45.3-88.6 95.8-88.6s92 39.1 95.8 88.6c.3 4.2 3.9 7.4 8.1 7.4H664a8 8 0 0 0 8-8.4C667.6 600.3 597.5 533 512 533zm128-112a48 48 0 1 0 96 0 48 48 0 1 0-96 0z\"/>\n</svg>\n"
  ],
  "numDeployments": 1,
  "solcInputHash": "599179478821d49901f5338970621856",
  "bytecode": "0x60a06040523480156200001157600080fd5b506040516200321d3803806200321d833981810160405281019062000037919062000570565b6040518060400160405280600f81526020017f44796e616d696320535647204e465400000000000000000000000000000000008152506040518060400160405280600381526020017f44534e00000000000000000000000000000000000000000000000000000000008152508160009081620000b4919062000855565b508060019081620000c6919062000855565b5050506000600681905550620000e2826200015260201b60201c565b60079081620000f2919062000855565b5062000104816200015260201b60201c565b6008908162000114919062000855565b508273ffffffffffffffffffffffffffffffffffffffff1660808173ffffffffffffffffffffffffffffffffffffffff168152505050505062000adb565b6060600062000188836040516020016200016d91906200097e565b604051602081830303815290604052620001eb60201b60201c565b90506040518060400160405280601a81526020017f646174613a696d6167652f7376672b786d6c3b6261736536342c00000000000081525081604051602001620001d492919062000997565b604051602081830303815290604052915050919050565b606060008251036200020f5760405180602001604052806000815250905062000373565b6000604051806060016040528060408152602001620031dd6040913990506000600360028551620002419190620009ee565b6200024d919062000a58565b60046200025b919062000a90565b905060006020826200026e9190620009ee565b67ffffffffffffffff8111156200028a57620002896200040c565b5b6040519080825280601f01601f191660200182016040528015620002bd5781602001600182028036833780820191505090505b509050818152600183018586518101602084015b818310156200032e576003830192508251603f8160121c168501518253600182019150603f81600c1c168501518253600182019150603f8160061c168501518253600182019150603f8116850151825360018201915050620002d1565b6003895106600181146200034b57600281146200035c5762000367565b613d3d60f01b600283035262000367565b603d60f81b60018303525b50505050508093505050505b919050565b6000604051905090565b600080fd5b600080fd5b600073ffffffffffffffffffffffffffffffffffffffff82169050919050565b6000620003b9826200038c565b9050919050565b620003cb81620003ac565b8114620003d757600080fd5b50565b600081519050620003eb81620003c0565b92915050565b600080fd5b600080fd5b6000601f19601f8301169050919050565b7f4e487b7100000000000000000000000000000000000000000000000000000000600052604160045260246000fd5b6200044682620003fb565b810181811067ffffffffffffffff821117156200046857620004676200040c565b5b80604052505050565b60006200047d62000378565b90506200048b82826200043b565b919050565b600067ffffffffffffffff821115620004ae57620004ad6200040c565b5b620004b982620003fb565b9050602081019050919050565b60005b83811015620004e6578082015181840152602081019050620004c9565b60008484015250505050565b600062000509620005038462000490565b62000471565b905082815260208101848484011115620005285762000527620003f6565b5b62000535848285620004c6565b509392505050565b600082601f830112620005555762000554620003f1565b5b815162000567848260208601620004f2565b91505092915050565b6000806000606084860312156200058c576200058b62000382565b5b60006200059c86828701620003da565b935050602084015167ffffffffffffffff811115620005c057620005bf62000387565b5b620005ce868287016200053d565b925050604084015167ffffffffffffffff811115620005f257620005f162000387565b5b62000600868287016200053d565b9150509250925092565b600081519050919050565b7f4e487b7100000000000000000000000000000000000000000000000000000000600052602260045260246000fd5b600060028204905060018216806200065d57607f821691505b60208210810362000673576200067262000615565b5b50919050565b60008190508160005260206000209050919050565b60006020601f8301049050919050565b600082821b905092915050565b600060088302620006dd7fffffffffffffffffffffffffffffffffffffffffffffffffffffffffffffffff826200069e565b620006e986836200069e565b95508019841693508086168417925050509392505050565b6000819050919050565b6000819050919050565b600062000736620007306200072a8462000701565b6200070b565b62000701565b9050919050565b6000819050919050565b620007528362000715565b6200076a62000761826200073d565b848454620006ab565b825550505050565b600090565b6200078162000772565b6200078e81848462000747565b505050565b5b81811015620007b657620007aa60008262000777565b60018101905062000794565b5050565b601f8211156200080557620007cf8162000679565b620007da846200068e565b81016020851015620007ea578190505b62000802620007f9856200068e565b83018262000793565b50505b505050565b600082821c905092915050565b60006200082a600019846008026200080a565b1980831691505092915050565b600062000845838362000817565b9150826002028217905092915050565b62000860826200060a565b67ffffffffffffffff8111156200087c576200087b6200040c565b5b62000888825462000644565b62000895828285620007ba565b600060209050601f831160018114620008cd5760008415620008b8578287015190505b620008c4858262000837565b86555062000934565b601f198416620008dd8662000679565b60005b828110156200090757848901518255600182019150602085019450602081019050620008e0565b8683101562000927578489015162000923601f89168262000817565b8355505b6001600288020188555050505b505050505050565b600081905092915050565b600062000954826200060a565b6200096081856200093c565b935062000972818560208601620004c6565b80840191505092915050565b60006200098c828462000947565b915081905092915050565b6000620009a5828562000947565b9150620009b3828462000947565b91508190509392505050565b7f4e487b7100000000000000000000000000000000000000000000000000000000600052601160045260246000fd5b6000620009fb8262000701565b915062000a088362000701565b925082820190508082111562000a235762000a22620009bf565b5b92915050565b7f4e487b7100000000000000000000000000000000000000000000000000000000600052601260045260246000fd5b600062000a658262000701565b915062000a728362000701565b92508262000a855762000a8462000a29565b5b828204905092915050565b600062000a9d8262000701565b915062000aaa8362000701565b925082820262000aba8162000701565b9150828204841483151762000ad45762000ad3620009bf565b5b5092915050565b6080516126e662000af7600039600061095001526126e66000f3fe608060405234801561001057600080fd5b50600436106101005760003560e01c80636352211e11610097578063b88d4fde11610066578063b88d4fde146102bd578063c87b56dd146102d9578063e425aded14610309578063e985e9c51461033957610100565b80636352211e1461022357806370a082311461025357806395d89b4114610283578063a22cb465146102a157610100565b80631e930812116100d35780631e9308121461019f57806323b872dd146101bb57806330d871c6146101d757806342842e0e1461020757610100565b806301ffc9a71461010557806306fdde0314610135578063081812fc14610153578063095ea7b314610183575b600080fd5b61011f600480360381019061011a919061198d565b610369565b60405161012c91906119d5565b60405180910390f35b61013d61044b565b60405161014a9190611a80565b60405180910390f35b61016d60048036038101906101689190611ad8565b6104dd565b60405161017a9190611b46565b60405180910390f35b61019d60048036038101906101989190611b8d565b6104f9565b005b6101b960048036038101906101b49190611c03565b61050f565b005b6101d560048036038101906101d09190611c30565b61058c565b005b6101f160048036038101906101ec9190611db8565b61068e565b6040516101fe9190611a80565b60405180910390f35b610221600480360381019061021c9190611c30565b61071b565b005b61023d60048036038101906102389190611ad8565b61073b565b60405161024a9190611b46565b60405180910390f35b61026d60048036038101906102689190611e01565b61074d565b60405161027a9190611e3d565b60405180910390f35b61028b610807565b6040516102989190611a80565b60405180910390f35b6102bb60048036038101906102b69190611e84565b610899565b005b6102d760048036038101906102d29190611f65565b6108af565b005b6102f360048036038101906102ee9190611ad8565b6108cc565b6040516103009190611a80565b60405180910390f35b610323600480360381019061031e9190611ad8565b610b7d565b6040516103309190611ff7565b60405180910390f35b610353600480360381019061034e9190612012565b610b95565b60405161036091906119d5565b60405180910390f35b60007f80ac58cd000000000000000000000000000000000000000000000000000000007bffffffffffffffffffffffffffffffffffffffffffffffffffffffff1916827bffffffffffffffffffffffffffffffffffffffffffffffffffffffff1916148061043457507f5b5e139f000000000000000000000000000000000000000000000000000000007bffffffffffffffffffffffffffffffffffffffffffffffffffffffff1916827bffffffffffffffffffffffffffffffffffffffffffffffffffffffff1916145b80610444575061044382610c29565b5b9050919050565b60606000805461045a90612081565b80601f016020809104026020016040519081016040528092919081815260200182805461048690612081565b80156104d35780601f106104a8576101008083540402835291602001916104d3565b820191906000526020600020905b8154815290600101906020018083116104b657829003601f168201915b5050505050905090565b60006104e882610c93565b506104f282610d1b565b9050919050565b61050b8282610506610d58565b610d60565b5050565b806009600060065481526020019081526020016000208190555061053533600654610d72565b60016006600082825461054891906120e1565b925050819055506006547f51e67edca96a8e375a3b7ab6640aee9013f7fb40776849f5cc0b0fd621251563826040516105819190611ff7565b60405180910390a250565b600073ffffffffffffffffffffffffffffffffffffffff168273ffffffffffffffffffffffffffffffffffffffff16036105fe5760006040517f64a0ae920000000000000000000000000000000000000000000000000000000081526004016105f59190611b46565b60405180910390fd5b6000610612838361060d610d58565b610d90565b90508373ffffffffffffffffffffffffffffffffffffffff168173ffffffffffffffffffffffffffffffffffffffff1614610688578382826040517f64283d7b00000000000000000000000000000000000000000000000000000000815260040161067f93929190612115565b60405180910390fd5b50505050565b606060006106ba836040516020016106a69190612188565b604051602081830303815290604052610faa565b90506040518060400160405280601a81526020017f646174613a696d6167652f7376672b786d6c3b6261736536342c0000000000008152508160405160200161070492919061219f565b604051602081830303815290604052915050919050565b610736838383604051806020016040528060008152506108af565b505050565b600061074682610c93565b9050919050565b60008073ffffffffffffffffffffffffffffffffffffffff168273ffffffffffffffffffffffffffffffffffffffff16036107c05760006040517f89c62b640000000000000000000000000000000000000000000000000000000081526004016107b79190611b46565b60405180910390fd5b600360008373ffffffffffffffffffffffffffffffffffffffff1673ffffffffffffffffffffffffffffffffffffffff168152602001908152602001600020549050919050565b60606001805461081690612081565b80601f016020809104026020016040519081016040528092919081815260200182805461084290612081565b801561088f5780601f106108645761010080835404028352916020019161088f565b820191906000526020600020905b81548152906001019060200180831161087257829003601f168201915b5050505050905090565b6108ab6108a4610d58565b8383611122565b5050565b6108ba84848461058c565b6108c684848484611291565b50505050565b606060006108d983611448565b9050600073ffffffffffffffffffffffffffffffffffffffff168173ffffffffffffffffffffffffffffffffffffffff160361094c57826040517f7e2732890000000000000000000000000000000000000000000000000000000081526004016109439190611e3d565b60405180910390fd5b60007f000000000000000000000000000000000000000000000000000000000000000073ffffffffffffffffffffffffffffffffffffffff1663feaf968c6040518163ffffffff1660e01b815260040160a060405180830381865afa1580156109b9573d6000803e3d6000fd5b505050506040513d601f19601f820116820180604052508101906109dd919061222f565b5050509150506000600780546109f290612081565b80601f0160208091040260200160405190810160405280929190818152602001828054610a1e90612081565b8015610a6b5780601f10610a4057610100808354040283529160200191610a6b565b820191906000526020600020905b815481529060010190602001808311610a4e57829003601f168201915b5050505050905060096000868152602001908152602001600020548212610b1a5760088054610a9990612081565b80601f0160208091040260200160405190810160405280929190818152602001828054610ac590612081565b8015610b125780601f10610ae757610100808354040283529160200191610b12565b820191906000526020600020905b815481529060010190602001808311610af557829003601f168201915b505050505090505b610b22611485565b610b53610b2d61044b565b83604051602001610b3f929190612472565b604051602081830303815290604052610faa565b604051602001610b6492919061219f565b6040516020818303038152906040529350505050919050565b60096020528060005260406000206000915090505481565b6000600560008473ffffffffffffffffffffffffffffffffffffffff1673ffffffffffffffffffffffffffffffffffffffff16815260200190815260200160002060008373ffffffffffffffffffffffffffffffffffffffff1673ffffffffffffffffffffffffffffffffffffffff16815260200190815260200160002060009054906101000a900460ff16905092915050565b60007f01ffc9a7000000000000000000000000000000000000000000000000000000007bffffffffffffffffffffffffffffffffffffffffffffffffffffffff1916827bffffffffffffffffffffffffffffffffffffffffffffffffffffffff1916149050919050565b600080610c9f83611448565b9050600073ffffffffffffffffffffffffffffffffffffffff168173ffffffffffffffffffffffffffffffffffffffff1603610d1257826040517f7e273289000000000000000000000000000000000000000000000000000000008152600401610d099190611e3d565b60405180910390fd5b80915050919050565b60006004600083815260200190815260200160002060009054906101000a900473ffffffffffffffffffffffffffffffffffffffff169050919050565b600033905090565b610d6d83838360016114c2565b505050565b610d8c828260405180602001604052806000815250611687565b5050565b600080610d9c84611448565b9050600073ffffffffffffffffffffffffffffffffffffffff168373ffffffffffffffffffffffffffffffffffffffff1614610dde57610ddd8184866116a3565b5b600073ffffffffffffffffffffffffffffffffffffffff168173ffffffffffffffffffffffffffffffffffffffff1614610e6f57610e206000856000806114c2565b6001600360008373ffffffffffffffffffffffffffffffffffffffff1673ffffffffffffffffffffffffffffffffffffffff168152602001908152602001600020600082825403925050819055505b600073ffffffffffffffffffffffffffffffffffffffff168573ffffffffffffffffffffffffffffffffffffffff1614610ef2576001600360008773ffffffffffffffffffffffffffffffffffffffff1673ffffffffffffffffffffffffffffffffffffffff168152602001908152602001600020600082825401925050819055505b846002600086815260200190815260200160002060006101000a81548173ffffffffffffffffffffffffffffffffffffffff021916908373ffffffffffffffffffffffffffffffffffffffff160217905550838573ffffffffffffffffffffffffffffffffffffffff168273ffffffffffffffffffffffffffffffffffffffff167fddf252ad1be2c89b69c2b068fc378daa952ba7f163c4a11628f55a4df523b3ef60405160405180910390a4809150509392505050565b60606000825103610fcc5760405180602001604052806000815250905061111d565b60006040518060600160405280604081526020016126716040913990506000600360028551610ffb91906120e1565b61100591906124f1565b60046110119190612522565b9050600060208261102291906120e1565b67ffffffffffffffff81111561103b5761103a611c8d565b5b6040519080825280601f01601f19166020018201604052801561106d5781602001600182028036833780820191505090505b509050818152600183018586518101602084015b818310156110dc576003830192508251603f8160121c168501518253600182019150603f81600c1c168501518253600182019150603f8160061c168501518253600182019150603f8116850151825360018201915050611081565b6003895106600181146110f6576002811461110657611111565b613d3d60f01b6002830352611111565b603d60f81b60018303525b50505050508093505050505b919050565b600073ffffffffffffffffffffffffffffffffffffffff168273ffffffffffffffffffffffffffffffffffffffff160361119357816040517f5b08ba1800000000000000000000000000000000000000000000000000000000815260040161118a9190611b46565b60405180910390fd5b80600560008573ffffffffffffffffffffffffffffffffffffffff1673ffffffffffffffffffffffffffffffffffffffff16815260200190815260200160002060008473ffffffffffffffffffffffffffffffffffffffff1673ffffffffffffffffffffffffffffffffffffffff16815260200190815260200160002060006101000a81548160ff0219169083151502179055508173ffffffffffffffffffffffffffffffffffffffff168373ffffffffffffffffffffffffffffffffffffffff167f17307eab39ab6107e8899845ad3d59bd9653f200f220920489ca2b5937696c318360405161128491906119d5565b60405180910390a3505050565b60008373ffffffffffffffffffffffffffffffffffffffff163b1115611442578273ffffffffffffffffffffffffffffffffffffffff1663150b7a026112d5610d58565b8685856040518563ffffffff1660e01b81526004016112f794939291906125b9565b6020604051808303816000875af192505050801561133357506040513d601f19601f82011682018060405250810190611330919061261a565b60015b6113b7573d8060008114611363576040519150601f19603f3d011682016040523d82523d6000602084013e611368565b606091505b5060008151036113af57836040517f64a0ae920000000000000000000000000000000000000000000000000000000081526004016113a69190611b46565b60405180910390fd5b805181602001fd5b63150b7a0260e01b7bffffffffffffffffffffffffffffffffffffffffffffffffffffffff1916817bffffffffffffffffffffffffffffffffffffffffffffffffffffffff19161461144057836040517f64a0ae920000000000000000000000000000000000000000000000000000000081526004016114379190611b46565b60405180910390fd5b505b50505050565b60006002600083815260200190815260200160002060009054906101000a900473ffffffffffffffffffffffffffffffffffffffff169050919050565b60606040518060400160405280601c81526020017f646174613a6170706c69636174696f6e2f6a736f6e3b62617365363400000000815250905090565b80806114fb5750600073ffffffffffffffffffffffffffffffffffffffff168273ffffffffffffffffffffffffffffffffffffffff1614155b1561162f57600061150b84610c93565b9050600073ffffffffffffffffffffffffffffffffffffffff168373ffffffffffffffffffffffffffffffffffffffff161415801561157657508273ffffffffffffffffffffffffffffffffffffffff168173ffffffffffffffffffffffffffffffffffffffff1614155b801561158957506115878184610b95565b155b156115cb57826040517fa9fbf51f0000000000000000000000000000000000000000000000000000000081526004016115c29190611b46565b60405180910390fd5b811561162d57838573ffffffffffffffffffffffffffffffffffffffff168273ffffffffffffffffffffffffffffffffffffffff167f8c5be1e5ebec7d5bd14f71427d1e84f3dd0314c0f7b2291e5b200ac8c7c3b92560405160405180910390a45b505b836004600085815260200190815260200160002060006101000a81548173ffffffffffffffffffffffffffffffffffffffff021916908373ffffffffffffffffffffffffffffffffffffffff16021790555050505050565b6116918383611767565b61169e6000848484611291565b505050565b6116ae838383611860565b61176257600073ffffffffffffffffffffffffffffffffffffffff168373ffffffffffffffffffffffffffffffffffffffff160361172357806040517f7e27328900000000000000000000000000000000000000000000000000000000815260040161171a9190611e3d565b60405180910390fd5b81816040517f177e802f000000000000000000000000000000000000000000000000000000008152600401611759929190612647565b60405180910390fd5b505050565b600073ffffffffffffffffffffffffffffffffffffffff168273ffffffffffffffffffffffffffffffffffffffff16036117d95760006040517f64a0ae920000000000000000000000000000000000000000000000000000000081526004016117d09190611b46565b60405180910390fd5b60006117e783836000610d90565b9050600073ffffffffffffffffffffffffffffffffffffffff168173ffffffffffffffffffffffffffffffffffffffff161461185b5760006040517f73c6ac6e0000000000000000000000000000000000000000000000000000000081526004016118529190611b46565b60405180910390fd5b505050565b60008073ffffffffffffffffffffffffffffffffffffffff168373ffffffffffffffffffffffffffffffffffffffff161415801561191857508273ffffffffffffffffffffffffffffffffffffffff168473ffffffffffffffffffffffffffffffffffffffff1614806118d957506118d88484610b95565b5b8061191757508273ffffffffffffffffffffffffffffffffffffffff166118ff83610d1b565b73ffffffffffffffffffffffffffffffffffffffff16145b5b90509392505050565b6000604051905090565b600080fd5b600080fd5b60007fffffffff0000000000000000000000000000000000000000000000000000000082169050919050565b61196a81611935565b811461197557600080fd5b50565b60008135905061198781611961565b92915050565b6000602082840312156119a3576119a261192b565b5b60006119b184828501611978565b91505092915050565b60008115159050919050565b6119cf816119ba565b82525050565b60006020820190506119ea60008301846119c6565b92915050565b600081519050919050565b600082825260208201905092915050565b60005b83811015611a2a578082015181840152602081019050611a0f565b60008484015250505050565b6000601f19601f8301169050919050565b6000611a52826119f0565b611a5c81856119fb565b9350611a6c818560208601611a0c565b611a7581611a36565b840191505092915050565b60006020820190508181036000830152611a9a8184611a47565b905092915050565b6000819050919050565b611ab581611aa2565b8114611ac057600080fd5b50565b600081359050611ad281611aac565b92915050565b600060208284031215611aee57611aed61192b565b5b6000611afc84828501611ac3565b91505092915050565b600073ffffffffffffffffffffffffffffffffffffffff82169050919050565b6000611b3082611b05565b9050919050565b611b4081611b25565b82525050565b6000602082019050611b5b6000830184611b37565b92915050565b611b6a81611b25565b8114611b7557600080fd5b50565b600081359050611b8781611b61565b92915050565b60008060408385031215611ba457611ba361192b565b5b6000611bb285828601611b78565b9250506020611bc385828601611ac3565b9150509250929050565b6000819050919050565b611be081611bcd565b8114611beb57600080fd5b50565b600081359050611bfd81611bd7565b92915050565b600060208284031215611c1957611c1861192b565b5b6000611c2784828501611bee565b91505092915050565b600080600060608486031215611c4957611c4861192b565b5b6000611c5786828701611b78565b9350506020611c6886828701611b78565b9250506040611c7986828701611ac3565b9150509250925092565b600080fd5b600080fd5b7f4e487b7100000000000000000000000000000000000000000000000000000000600052604160045260246000fd5b611cc582611a36565b810181811067ffffffffffffffff82111715611ce457611ce3611c8d565b5b80604052505050565b6000611cf7611921565b9050611d038282611cbc565b919050565b600067ffffffffffffffff821115611d2357611d22611c8d565b5b611d2c82611a36565b9050602081019050919050565b82818337600083830152505050565b6000611d5b611d5684611d08565b611ced565b905082815260208101848484011115611d7757611d76611c88565b5b611d82848285611d39565b509392505050565b600082601f830112611d9f57611d9e611c83565b5b8135611daf848260208601611d48565b91505092915050565b600060208284031215611dce57611dcd61192b565b5b600082013567ffffffffffffffff811115611dec57611deb611930565b5b611df884828501611d8a565b91505092915050565b600060208284031215611e1757611e1661192b565b5b6000611e2584828501611b78565b91505092915050565b611e3781611aa2565b82525050565b6000602082019050611e526000830184611e2e565b92915050565b611e61816119ba565b8114611e6c57600080fd5b50565b600081359050611e7e81611e58565b92915050565b60008060408385031215611e9b57611e9a61192b565b5b6000611ea985828601611b78565b9250506020611eba85828601611e6f565b9150509250929050565b600067ffffffffffffffff821115611edf57611ede611c8d565b5b611ee882611a36565b9050602081019050919050565b6000611f08611f0384611ec4565b611ced565b905082815260208101848484011115611f2457611f23611c88565b5b611f2f848285611d39565b509392505050565b600082601f830112611f4c57611f4b611c83565b5b8135611f5c848260208601611ef5565b91505092915050565b60008060008060808587031215611f7f57611f7e61192b565b5b6000611f8d87828801611b78565b9450506020611f9e87828801611b78565b9350506040611faf87828801611ac3565b925050606085013567ffffffffffffffff811115611fd057611fcf611930565b5b611fdc87828801611f37565b91505092959194509250565b611ff181611bcd565b82525050565b600060208201905061200c6000830184611fe8565b92915050565b600080604083850312156120295761202861192b565b5b600061203785828601611b78565b925050602061204885828601611b78565b9150509250929050565b7f4e487b7100000000000000000000000000000000000000000000000000000000600052602260045260246000fd5b6000600282049050600182168061209957607f821691505b6020821081036120ac576120ab612052565b5b50919050565b7f4e487b7100000000000000000000000000000000000000000000000000000000600052601160045260246000fd5b60006120ec82611aa2565b91506120f783611aa2565b925082820190508082111561210f5761210e6120b2565b5b92915050565b600060608201905061212a6000830186611b37565b6121376020830185611e2e565b6121446040830184611b37565b949350505050565b600081905092915050565b6000612162826119f0565b61216c818561214c565b935061217c818560208601611a0c565b80840191505092915050565b60006121948284612157565b915081905092915050565b60006121ab8285612157565b91506121b78284612157565b91508190509392505050565b600069ffffffffffffffffffff82169050919050565b6121e2816121c3565b81146121ed57600080fd5b50565b6000815190506121ff816121d9565b92915050565b60008151905061221481611bd7565b92915050565b60008151905061222981611aac565b92915050565b600080600080600060a0868803121561224b5761224a61192b565b5b6000612259888289016121f0565b955050602061226a88828901612205565b945050604061227b8882890161221a565b935050606061228c8882890161221a565b925050608061229d888289016121f0565b9150509295509295909350565b7f7b226e616d65223a220000000000000000000000000000000000000000000000600082015250565b60006122e060098361214c565b91506122eb826122aa565b600982019050919050565b7f222c20226465736372697074696f6e223a22416e204e4654207468617420636860008201527f616e676573206261736564206f6e2074686520436861696e6c696e6b2046656560208201527f64222c2000000000000000000000000000000000000000000000000000000000604082015250565b600061237860448361214c565b9150612383826122f6565b604482019050919050565b7f2261747472696275746573223a205b7b2274726169745f74797065223a20226360008201527f6f6f6c6e657373222c202276616c7565223a203130307d5d2c2022696d61676560208201527f223a220000000000000000000000000000000000000000000000000000000000604082015250565b600061241060438361214c565b915061241b8261238e565b604382019050919050565b7f227d000000000000000000000000000000000000000000000000000000000000600082015250565b600061245c60028361214c565b915061246782612426565b600282019050919050565b600061247d826122d3565b91506124898285612157565b91506124948261236b565b915061249f82612403565b91506124ab8284612157565b91506124b68261244f565b91508190509392505050565b7f4e487b7100000000000000000000000000000000000000000000000000000000600052601260045260246000fd5b60006124fc82611aa2565b915061250783611aa2565b925082612517576125166124c2565b5b828204905092915050565b600061252d82611aa2565b915061253883611aa2565b925082820261254681611aa2565b9150828204841483151761255d5761255c6120b2565b5b5092915050565b600081519050919050565b600082825260208201905092915050565b600061258b82612564565b612595818561256f565b93506125a5818560208601611a0c565b6125ae81611a36565b840191505092915050565b60006080820190506125ce6000830187611b37565b6125db6020830186611b37565b6125e86040830185611e2e565b81810360608301526125fa8184612580565b905095945050505050565b60008151905061261481611961565b92915050565b6000602082840312156126305761262f61192b565b5b600061263e84828501612605565b91505092915050565b600060408201905061265c6000830185611b37565b6126696020830184611e2e565b939250505056fe4142434445464748494a4b4c4d4e4f505152535455565758595a6162636465666768696a6b6c6d6e6f707172737475767778797a303132333435363738392b2fa26469706673582212206ae4641895ffb98c6c3cd9da74b253fdcf3e6dff561aa3d56a58d9ac02bac6c964736f6c634300081400334142434445464748494a4b4c4d4e4f505152535455565758595a6162636465666768696a6b6c6d6e6f707172737475767778797a303132333435363738392b2f",
  "devdoc": {
    "errors": {
      "ERC721IncorrectOwner(address,uint256,address)": [
        {
          "details": "Indicates an error related to the ownership over a particular token. Used in transfers.",
          "params": {
            "owner": "Address of the current owner of a token.",
            "sender": "Address whose tokens are being transferred.",
            "tokenId": "Identifier number of a token."
          }
        }
      ],
      "ERC721InsufficientApproval(address,uint256)": [
        {
          "details": "Indicates a failure with the `operator`s approval. Used in transfers.",
          "params": {
            "operator": "Address that may be allowed to operate on tokens without being their owner.",
            "tokenId": "Identifier number of a token."
          }
        }
      ],
      "ERC721InvalidApprover(address)": [
        {
          "details": "Indicates a failure with the `approver` of a token to be approved. Used in approvals.",
          "params": {
            "approver": "Address initiating an approval operation."
          }
        }
      ],
      "ERC721InvalidOperator(address)": [
        {
          "details": "Indicates a failure with the `operator` to be approved. Used in approvals.",
          "params": {
            "operator": "Address that may be allowed to operate on tokens without being their owner."
          }
        }
      ],
      "ERC721InvalidOwner(address)": [
        {
          "details": "Indicates that an address can't be an owner. For example, `address(0)` is a forbidden owner in EIP-20. Used in balance queries.",
          "params": {
            "owner": "Address of the current owner of a token."
          }
        }
      ],
      "ERC721InvalidReceiver(address)": [
        {
          "details": "Indicates a failure with the token `receiver`. Used in transfers.",
          "params": {
            "receiver": "Address to which tokens are being transferred."
          }
        }
      ],
      "ERC721InvalidSender(address)": [
        {
          "details": "Indicates a failure with the token `sender`. Used in transfers.",
          "params": {
            "sender": "Address whose tokens are being transferred."
          }
        }
      ],
      "ERC721NonexistentToken(uint256)": [
        {
          "details": "Indicates a `tokenId` whose `owner` is the zero address.",
          "params": {
            "tokenId": "Identifier number of a token."
          }
        }
      ]
    },
    "events": {
      "Approval(address,address,uint256)": {
        "details": "Emitted when `owner` enables `approved` to manage the `tokenId` token."
      },
      "ApprovalForAll(address,address,bool)": {
        "details": "Emitted when `owner` enables or disables (`approved`) `operator` to manage all of its assets."
      },
      "Transfer(address,address,uint256)": {
        "details": "Emitted when `tokenId` token is transferred from `from` to `to`."
      }
    },
    "kind": "dev",
    "methods": {
      "approve(address,uint256)": {
        "details": "See {IERC721-approve}."
      },
      "balanceOf(address)": {
        "details": "See {IERC721-balanceOf}."
      },
      "getApproved(uint256)": {
        "details": "See {IERC721-getApproved}."
      },
      "isApprovedForAll(address,address)": {
        "details": "See {IERC721-isApprovedForAll}."
      },
      "name()": {
        "details": "See {IERC721Metadata-name}."
      },
      "ownerOf(uint256)": {
        "details": "See {IERC721-ownerOf}."
      },
      "safeTransferFrom(address,address,uint256)": {
        "details": "See {IERC721-safeTransferFrom}."
      },
      "safeTransferFrom(address,address,uint256,bytes)": {
        "details": "See {IERC721-safeTransferFrom}."
      },
      "setApprovalForAll(address,bool)": {
        "details": "See {IERC721-setApprovalForAll}."
      },
      "supportsInterface(bytes4)": {
        "details": "See {IERC165-supportsInterface}."
      },
      "symbol()": {
        "details": "See {IERC721Metadata-symbol}."
      },
      "tokenURI(uint256)": {
        "details": "See {IERC721Metadata-tokenURI}."
      },
      "transferFrom(address,address,uint256)": {
        "details": "See {IERC721-transferFrom}."
      }
    },
    "version": 1
  },
  "userdoc": {
    "kind": "user",
    "methods": {},
    "version": 1
  },
  "storageLayout": {
    "storage": [
      {
        "astId": 215,
        "contract": "contracts/DynamicSvgNft.sol:DynamicSvgNft",
        "label": "_name",
        "offset": 0,
        "slot": "0",
        "type": "t_string_storage"
      },
      {
        "astId": 217,
        "contract": "contracts/DynamicSvgNft.sol:DynamicSvgNft",
        "label": "_symbol",
        "offset": 0,
        "slot": "1",
        "type": "t_string_storage"
      },
      {
        "astId": 221,
        "contract": "contracts/DynamicSvgNft.sol:DynamicSvgNft",
        "label": "_owners",
        "offset": 0,
        "slot": "2",
        "type": "t_mapping(t_uint256,t_address)"
      },
      {
        "astId": 225,
        "contract": "contracts/DynamicSvgNft.sol:DynamicSvgNft",
        "label": "_balances",
        "offset": 0,
        "slot": "3",
        "type": "t_mapping(t_address,t_uint256)"
      },
      {
        "astId": 229,
        "contract": "contracts/DynamicSvgNft.sol:DynamicSvgNft",
        "label": "_tokenApprovals",
        "offset": 0,
        "slot": "4",
        "type": "t_mapping(t_uint256,t_address)"
      },
      {
        "astId": 235,
        "contract": "contracts/DynamicSvgNft.sol:DynamicSvgNft",
        "label": "_operatorApprovals",
        "offset": 0,
        "slot": "5",
        "type": "t_mapping(t_address,t_mapping(t_address,t_bool))"
      },
      {
        "astId": 2962,
        "contract": "contracts/DynamicSvgNft.sol:DynamicSvgNft",
        "label": "s_tokenCounter",
        "offset": 0,
        "slot": "6",
        "type": "t_uint256"
      },
      {
        "astId": 2964,
        "contract": "contracts/DynamicSvgNft.sol:DynamicSvgNft",
        "label": "i_lowImageURI",
        "offset": 0,
        "slot": "7",
        "type": "t_string_storage"
      },
      {
        "astId": 2966,
        "contract": "contracts/DynamicSvgNft.sol:DynamicSvgNft",
        "label": "i_highImageURI",
        "offset": 0,
        "slot": "8",
        "type": "t_string_storage"
      },
      {
        "astId": 2976,
        "contract": "contracts/DynamicSvgNft.sol:DynamicSvgNft",
        "label": "s_tokenIdToHighValue",
        "offset": 0,
        "slot": "9",
        "type": "t_mapping(t_uint256,t_int256)"
      }
    ],
    "types": {
      "t_address": {
        "encoding": "inplace",
        "label": "address",
        "numberOfBytes": "20"
      },
      "t_bool": {
        "encoding": "inplace",
        "label": "bool",
        "numberOfBytes": "1"
      },
      "t_int256": {
        "encoding": "inplace",
        "label": "int256",
        "numberOfBytes": "32"
      },
      "t_mapping(t_address,t_bool)": {
        "encoding": "mapping",
        "key": "t_address",
        "label": "mapping(address => bool)",
        "numberOfBytes": "32",
        "value": "t_bool"
      },
      "t_mapping(t_address,t_mapping(t_address,t_bool))": {
        "encoding": "mapping",
        "key": "t_address",
        "label": "mapping(address => mapping(address => bool))",
        "numberOfBytes": "32",
        "value": "t_mapping(t_address,t_bool)"
      },
      "t_mapping(t_address,t_uint256)": {
        "encoding": "mapping",
        "key": "t_address",
        "label": "mapping(address => uint256)",
        "numberOfBytes": "32",
        "value": "t_uint256"
      },
      "t_mapping(t_uint256,t_address)": {
        "encoding": "mapping",
        "key": "t_uint256",
        "label": "mapping(uint256 => address)",
        "numberOfBytes": "32",
        "value": "t_address"
      },
      "t_mapping(t_uint256,t_int256)": {
        "encoding": "mapping",
        "key": "t_uint256",
        "label": "mapping(uint256 => int256)",
        "numberOfBytes": "32",
        "value": "t_int256"
      },
      "t_string_storage": {
        "encoding": "bytes",
        "label": "string",
        "numberOfBytes": "32"
      },
      "t_uint256": {
        "encoding": "inplace",
        "label": "uint256",
        "numberOfBytes": "32"
      }
    }
  }
}