{
  "address": "0x5740b037A4709D2EebFae47869A549309341272e",
  "abi": [
    {
      "inputs": [
        {
          "internalType": "address",
          "name": "vrfCoordinatorV2",
          "type": "address"
        },
        {
          "internalType": "uint64",
          "name": "subscriptionId",
          "type": "uint64"
        },
        {
          "internalType": "bytes32",
          "name": "gasLane",
          "type": "bytes32"
        },
        {
          "internalType": "uint256",
          "name": "mintFee",
          "type": "uint256"
        },
        {
          "internalType": "uint32",
          "name": "callbackGasLimit",
          "type": "uint32"
        },
        {
          "internalType": "string[3]",
          "name": "dogTokenUris",
          "type": "string[3]"
        }
      ],
      "stateMutability": "nonpayable",
      "type": "constructor"
    },
    {
      "inputs": [
        {
          "internalType": "address",
          "name": "sender",
          "type": "address"
        },
        {
          "internalType": "uint256",
          "name": "tokenId",
          "type": "uint256"
        },
        {
          "internalType": "address",
          "name": "owner",
          "type": "address"
        }
      ],
      "name": "ERC721IncorrectOwner",
      "type": "error"
    },
    {
      "inputs": [
        {
          "internalType": "address",
          "name": "operator",
          "type": "address"
        },
        {
          "internalType": "uint256",
          "name": "tokenId",
          "type": "uint256"
        }
      ],
      "name": "ERC721InsufficientApproval",
      "type": "error"
    },
    {
      "inputs": [
        {
          "internalType": "address",
          "name": "approver",
          "type": "address"
        }
      ],
      "name": "ERC721InvalidApprover",
      "type": "error"
    },
    {
      "inputs": [
        {
          "internalType": "address",
          "name": "operator",
          "type": "address"
        }
      ],
      "name": "ERC721InvalidOperator",
      "type": "error"
    },
    {
      "inputs": [
        {
          "internalType": "address",
          "name": "owner",
          "type": "address"
        }
      ],
      "name": "ERC721InvalidOwner",
      "type": "error"
    },
    {
      "inputs": [
        {
          "internalType": "address",
          "name": "receiver",
          "type": "address"
        }
      ],
      "name": "ERC721InvalidReceiver",
      "type": "error"
    },
    {
      "inputs": [
        {
          "internalType": "address",
          "name": "sender",
          "type": "address"
        }
      ],
      "name": "ERC721InvalidSender",
      "type": "error"
    },
    {
      "inputs": [
        {
          "internalType": "uint256",
          "name": "tokenId",
          "type": "uint256"
        }
      ],
      "name": "ERC721NonexistentToken",
      "type": "error"
    },
    {
      "inputs": [
        {
          "internalType": "address",
          "name": "have",
          "type": "address"
        },
        {
          "internalType": "address",
          "name": "want",
          "type": "address"
        }
      ],
      "name": "OnlyCoordinatorCanFulfill",
      "type": "error"
    },
    {
      "inputs": [
        {
          "internalType": "address",
          "name": "owner",
          "type": "address"
        }
      ],
      "name": "OwnableInvalidOwner",
      "type": "error"
    },
    {
      "inputs": [
        {
          "internalType": "address",
          "name": "account",
          "type": "address"
        }
      ],
      "name": "OwnableUnauthorizedAccount",
      "type": "error"
    },
    {
      "inputs": [],
      "name": "RandomIpfsNft__NeedMoreETHSent",
      "type": "error"
    },
    {
      "inputs": [],
      "name": "RandomIpfsNft__RangeOutOfBounds",
      "type": "error"
    },
    {
      "inputs": [],
      "name": "RandomIpfsNft__TransferFailed",
      "type": "error"
    },
    {
      "anonymous": false,
      "inputs": [
        {
          "indexed": true,
          "internalType": "address",
          "name": "owner",
          "type": "address"
        },
        {
          "indexed": true,
          "internalType": "address",
          "name": "approved",
          "type": "address"
        },
        {
          "indexed": true,
          "internalType": "uint256",
          "name": "tokenId",
          "type": "uint256"
        }
      ],
      "name": "Approval",
      "type": "event"
    },
    {
      "anonymous": false,
      "inputs": [
        {
          "indexed": true,
          "internalType": "address",
          "name": "owner",
          "type": "address"
        },
        {
          "indexed": true,
          "internalType": "address",
          "name": "operator",
          "type": "address"
        },
        {
          "indexed": false,
          "internalType": "bool",
          "name": "approved",
          "type": "bool"
        }
      ],
      "name": "ApprovalForAll",
      "type": "event"
    },
    {
      "anonymous": false,
      "inputs": [
        {
          "indexed": false,
          "internalType": "uint256",
          "name": "_fromTokenId",
          "type": "uint256"
        },
        {
          "indexed": false,
          "internalType": "uint256",
          "name": "_toTokenId",
          "type": "uint256"
        }
      ],
      "name": "BatchMetadataUpdate",
      "type": "event"
    },
    {
      "anonymous": false,
      "inputs": [
        {
          "indexed": false,
          "internalType": "uint256",
          "name": "_tokenId",
          "type": "uint256"
        }
      ],
      "name": "MetadataUpdate",
      "type": "event"
    },
    {
      "anonymous": false,
      "inputs": [
        {
          "indexed": true,
          "internalType": "uint256",
          "name": "tokenId",
          "type": "uint256"
        },
        {
          "indexed": true,
          "internalType": "enum RandomIpfsNft.Breed",
          "name": "breed",
          "type": "uint8"
        },
        {
          "indexed": true,
          "internalType": "address",
          "name": "minter",
          "type": "address"
        }
      ],
      "name": "NftMinted",
      "type": "event"
    },
    {
      "anonymous": false,
      "inputs": [
        {
          "indexed": true,
          "internalType": "uint256",
          "name": "requestId",
          "type": "uint256"
        },
        {
          "indexed": true,
          "internalType": "address",
          "name": "requester",
          "type": "address"
        }
      ],
      "name": "NftRequested",
      "type": "event"
    },
    {
      "anonymous": false,
      "inputs": [
        {
          "indexed": true,
          "internalType": "address",
          "name": "previousOwner",
          "type": "address"
        },
        {
          "indexed": true,
          "internalType": "address",
          "name": "newOwner",
          "type": "address"
        }
      ],
      "name": "OwnershipTransferred",
      "type": "event"
    },
    {
      "anonymous": false,
      "inputs": [
        {
          "indexed": true,
          "internalType": "address",
          "name": "from",
          "type": "address"
        },
        {
          "indexed": true,
          "internalType": "address",
          "name": "to",
          "type": "address"
        },
        {
          "indexed": true,
          "internalType": "uint256",
          "name": "tokenId",
          "type": "uint256"
        }
      ],
      "name": "Transfer",
      "type": "event"
    },
    {
      "inputs": [
        {
          "internalType": "address",
          "name": "to",
          "type": "address"
        },
        {
          "internalType": "uint256",
          "name": "tokenId",
          "type": "uint256"
        }
      ],
      "name": "approve",
      "outputs": [],
      "stateMutability": "nonpayable",
      "type": "function"
    },
    {
      "inputs": [
        {
          "internalType": "address",
          "name": "owner",
          "type": "address"
        }
      ],
      "name": "balanceOf",
      "outputs": [
        {
          "internalType": "uint256",
          "name": "",
          "type": "uint256"
        }
      ],
      "stateMutability": "view",
      "type": "function"
    },
    {
      "inputs": [
        {
          "internalType": "uint256",
          "name": "tokenId",
          "type": "uint256"
        }
      ],
      "name": "getApproved",
      "outputs": [
        {
          "internalType": "address",
          "name": "",
          "type": "address"
        }
      ],
      "stateMutability": "view",
      "type": "function"
    },
    {
      "inputs": [
        {
          "internalType": "uint256",
          "name": "moddedRng",
          "type": "uint256"
        }
      ],
      "name": "getBreedFromModdedRng",
      "outputs": [
        {
          "internalType": "enum RandomIpfsNft.Breed",
          "name": "",
          "type": "uint8"
        }
      ],
      "stateMutability": "pure",
      "type": "function"
    },
    {
      "inputs": [],
      "name": "getChanceArray",
      "outputs": [
        {
          "internalType": "uint256[3]",
          "name": "",
          "type": "uint256[3]"
        }
      ],
      "stateMutability": "pure",
      "type": "function"
    },
    {
      "inputs": [
        {
          "internalType": "uint256",
          "name": "index",
          "type": "uint256"
        }
      ],
      "name": "getDogTokenUris",
      "outputs": [
        {
          "internalType": "string",
          "name": "",
          "type": "string"
        }
      ],
      "stateMutability": "view",
      "type": "function"
    },
    {
      "inputs": [],
      "name": "getMintFee",
      "outputs": [
        {
          "internalType": "uint256",
          "name": "",
          "type": "uint256"
        }
      ],
      "stateMutability": "view",
      "type": "function"
    },
    {
      "inputs": [],
      "name": "getTokenCounter",
      "outputs": [
        {
          "internalType": "uint256",
          "name": "",
          "type": "uint256"
        }
      ],
      "stateMutability": "view",
      "type": "function"
    },
    {
      "inputs": [
        {
          "internalType": "address",
          "name": "owner",
          "type": "address"
        },
        {
          "internalType": "address",
          "name": "operator",
          "type": "address"
        }
      ],
      "name": "isApprovedForAll",
      "outputs": [
        {
          "internalType": "bool",
          "name": "",
          "type": "bool"
        }
      ],
      "stateMutability": "view",
      "type": "function"
    },
    {
      "inputs": [],
      "name": "name",
      "outputs": [
        {
          "internalType": "string",
          "name": "",
          "type": "string"
        }
      ],
      "stateMutability": "view",
      "type": "function"
    },
    {
      "inputs": [],
      "name": "owner",
      "outputs": [
        {
          "internalType": "address",
          "name": "",
          "type": "address"
        }
      ],
      "stateMutability": "view",
      "type": "function"
    },
    {
      "inputs": [
        {
          "internalType": "uint256",
          "name": "tokenId",
          "type": "uint256"
        }
      ],
      "name": "ownerOf",
      "outputs": [
        {
          "internalType": "address",
          "name": "",
          "type": "address"
        }
      ],
      "stateMutability": "view",
      "type": "function"
    },
    {
      "inputs": [
        {
          "internalType": "uint256",
          "name": "requestId",
          "type": "uint256"
        },
        {
          "internalType": "uint256[]",
          "name": "randomWords",
          "type": "uint256[]"
        }
      ],
      "name": "rawFulfillRandomWords",
      "outputs": [],
      "stateMutability": "nonpayable",
      "type": "function"
    },
    {
      "inputs": [],
      "name": "renounceOwnership",
      "outputs": [],
      "stateMutability": "nonpayable",
      "type": "function"
    },
    {
      "inputs": [],
      "name": "requestNft",
      "outputs": [
        {
          "internalType": "uint256",
          "name": "requestId",
          "type": "uint256"
        }
      ],
      "stateMutability": "payable",
      "type": "function"
    },
    {
      "inputs": [
        {
          "internalType": "uint256",
          "name": "",
          "type": "uint256"
        }
      ],
      "name": "s_requestIdToSender",
      "outputs": [
        {
          "internalType": "address",
          "name": "",
          "type": "address"
        }
      ],
      "stateMutability": "view",
      "type": "function"
    },
    {
      "inputs": [
        {
          "internalType": "address",
          "name": "from",
          "type": "address"
        },
        {
          "internalType": "address",
          "name": "to",
          "type": "address"
        },
        {
          "internalType": "uint256",
          "name": "tokenId",
          "type": "uint256"
        }
      ],
      "name": "safeTransferFrom",
      "outputs": [],
      "stateMutability": "nonpayable",
      "type": "function"
    },
    {
      "inputs": [
        {
          "internalType": "address",
          "name": "from",
          "type": "address"
        },
        {
          "internalType": "address",
          "name": "to",
          "type": "address"
        },
        {
          "internalType": "uint256",
          "name": "tokenId",
          "type": "uint256"
        },
        {
          "internalType": "bytes",
          "name": "data",
          "type": "bytes"
        }
      ],
      "name": "safeTransferFrom",
      "outputs": [],
      "stateMutability": "nonpayable",
      "type": "function"
    },
    {
      "inputs": [
        {
          "internalType": "address",
          "name": "operator",
          "type": "address"
        },
        {
          "internalType": "bool",
          "name": "approved",
          "type": "bool"
        }
      ],
      "name": "setApprovalForAll",
      "outputs": [],
      "stateMutability": "nonpayable",
      "type": "function"
    },
    {
      "inputs": [
        {
          "internalType": "bytes4",
          "name": "interfaceId",
          "type": "bytes4"
        }
      ],
      "name": "supportsInterface",
      "outputs": [
        {
          "internalType": "bool",
          "name": "",
          "type": "bool"
        }
      ],
      "stateMutability": "view",
      "type": "function"
    },
    {
      "inputs": [],
      "name": "symbol",
      "outputs": [
        {
          "internalType": "string",
          "name": "",
          "type": "string"
        }
      ],
      "stateMutability": "view",
      "type": "function"
    },
    {
      "inputs": [
        {
          "internalType": "uint256",
          "name": "tokenId",
          "type": "uint256"
        }
      ],
      "name": "tokenURI",
      "outputs": [
        {
          "internalType": "string",
          "name": "",
          "type": "string"
        }
      ],
      "stateMutability": "view",
      "type": "function"
    },
    {
      "inputs": [
        {
          "internalType": "address",
          "name": "from",
          "type": "address"
        },
        {
          "internalType": "address",
          "name": "to",
          "type": "address"
        },
        {
          "internalType": "uint256",
          "name": "tokenId",
          "type": "uint256"
        }
      ],
      "name": "transferFrom",
      "outputs": [],
      "stateMutability": "nonpayable",
      "type": "function"
    },
    {
      "inputs": [
        {
          "internalType": "address",
          "name": "newOwner",
          "type": "address"
        }
      ],
      "name": "transferOwnership",
      "outputs": [],
      "stateMutability": "nonpayable",
      "type": "function"
    },
    {
      "inputs": [],
      "name": "withdraw",
      "outputs": [],
      "stateMutability": "nonpayable",
      "type": "function"
    }
  ],
  "transactionHash": "0xc1ddb3c0f752cecf86c33641306592ee6f39bf93175036a078a7bbed2f20cc90",
  "args": [
    "0x8103B0A8A00be2DDC778e6e7eaa21791Cd364625",
    "8546",
    "0x474e34a077df58807dbe9c96d3c009b23b3c6d0cce433e59bbf5b34f823bc56c",
    "10000000000000000",
    "500000",
    [
      "ipfs://QmaVkBn2tKmjbhphU7eyztbvSQU5EXDdqRyXZtRhSGgJGo",
      "ipfs://QmYQC5aGZu2PTH8XzbJrbDnvhj3gVs7ya33H9mqUNvST3d",
      "ipfs://QmZYmH5iDbD6v3U2ixoVAjioSzvWJszDzYdbeCLquGSpVm"
    ]
  ],
  "numDeployments": 1,
  "solcInputHash": "72fd1c763ecccaa323329dd7df1f6218",
  "bytecode": "0x6101406040523480156200001257600080fd5b5060405162003fc738038062003fc78339818101604052810190620000389190620007af565b33866040518060400160405280600f81526020017f52616e646f6d2049504653204e465400000000000000000000000000000000008152506040518060400160405280600381526020017f52494e00000000000000000000000000000000000000000000000000000000008152508160009081620000b7919062000aab565b508060019081620000c9919062000aab565b5050508073ffffffffffffffffffffffffffffffffffffffff1660808173ffffffffffffffffffffffffffffffffffffffff168152505050600073ffffffffffffffffffffffffffffffffffffffff168173ffffffffffffffffffffffffffffffffffffffff1603620001765760006040517f1e4fbdf70000000000000000000000000000000000000000000000000000000081526004016200016d919062000ba3565b60405180910390fd5b62000187816200021e60201b60201c565b508573ffffffffffffffffffffffffffffffffffffffff1660a08173ffffffffffffffffffffffffffffffffffffffff16815250508360e081815250508467ffffffffffffffff1660c08167ffffffffffffffff16815250508261012081815250508163ffffffff166101008163ffffffff168152505080600990600362000211929190620002e4565b5050505050505062000bc0565b6000600760009054906101000a900473ffffffffffffffffffffffffffffffffffffffff16905081600760006101000a81548173ffffffffffffffffffffffffffffffffffffffff021916908373ffffffffffffffffffffffffffffffffffffffff1602179055508173ffffffffffffffffffffffffffffffffffffffff168173ffffffffffffffffffffffffffffffffffffffff167f8be0079c531659141344cd1fd0a4f28419497f9722a3daafe3b4186f6b6457e060405160405180910390a35050565b82805482825590600052602060002090810192821562000331579160200282015b82811115620003305782518290816200031f919062000aab565b509160200191906001019062000305565b5b50905062000340919062000344565b5090565b5b808211156200036857600081816200035e91906200036c565b5060010162000345565b5090565b5080546200037a90620008a4565b6000825580601f106200038e5750620003af565b601f016020900490600052602060002090810190620003ae9190620003b2565b5b50565b5b80821115620003cd576000816000905550600101620003b3565b5090565b6000604051905090565b600080fd5b600080fd5b600073ffffffffffffffffffffffffffffffffffffffff82169050919050565b60006200041282620003e5565b9050919050565b620004248162000405565b81146200043057600080fd5b50565b600081519050620004448162000419565b92915050565b600067ffffffffffffffff82169050919050565b62000469816200044a565b81146200047557600080fd5b50565b60008151905062000489816200045e565b92915050565b6000819050919050565b620004a4816200048f565b8114620004b057600080fd5b50565b600081519050620004c48162000499565b92915050565b6000819050919050565b620004df81620004ca565b8114620004eb57600080fd5b50565b600081519050620004ff81620004d4565b92915050565b600063ffffffff82169050919050565b620005208162000505565b81146200052c57600080fd5b50565b600081519050620005408162000515565b92915050565b600080fd5b6000601f19601f8301169050919050565b7f4e487b7100000000000000000000000000000000000000000000000000000000600052604160045260246000fd5b62000596826200054b565b810181811067ffffffffffffffff82111715620005b857620005b76200055c565b5b80604052505050565b6000620005cd620003d1565b9050620005db82826200058b565b919050565b600067ffffffffffffffff821115620005fe57620005fd6200055c565b5b602082029050919050565b600080fd5b600080fd5b600067ffffffffffffffff8211156200063157620006306200055c565b5b6200063c826200054b565b9050602081019050919050565b60005b83811015620006695780820151818401526020810190506200064c565b60008484015250505050565b60006200068c620006868462000613565b620005c1565b905082815260208101848484011115620006ab57620006aa6200060e565b5b620006b884828562000649565b509392505050565b600082601f830112620006d857620006d762000546565b5b8151620006ea84826020860162000675565b91505092915050565b60006200070a6200070484620005e0565b620005c1565b9050806020840283018581111562000727576200072662000609565b5b835b818110156200077557805167ffffffffffffffff81111562000750576200074f62000546565b5b8086016200075f8982620006c0565b8552602085019450505060208101905062000729565b5050509392505050565b600082601f83011262000797576200079662000546565b5b6003620007a6848285620006f3565b91505092915050565b60008060008060008060c08789031215620007cf57620007ce620003db565b5b6000620007df89828a0162000433565b9650506020620007f289828a0162000478565b95505060406200080589828a01620004b3565b94505060606200081889828a01620004ee565b93505060806200082b89828a016200052f565b92505060a087015167ffffffffffffffff8111156200084f576200084e620003e0565b5b6200085d89828a016200077f565b9150509295509295509295565b600081519050919050565b7f4e487b7100000000000000000000000000000000000000000000000000000000600052602260045260246000fd5b60006002820490506001821680620008bd57607f821691505b602082108103620008d357620008d262000875565b5b50919050565b60008190508160005260206000209050919050565b60006020601f8301049050919050565b600082821b905092915050565b6000600883026200093d7fffffffffffffffffffffffffffffffffffffffffffffffffffffffffffffffff82620008fe565b620009498683620008fe565b95508019841693508086168417925050509392505050565b6000819050919050565b60006200098c620009866200098084620004ca565b62000961565b620004ca565b9050919050565b6000819050919050565b620009a8836200096b565b620009c0620009b78262000993565b8484546200090b565b825550505050565b600090565b620009d7620009c8565b620009e48184846200099d565b505050565b5b8181101562000a0c5762000a00600082620009cd565b600181019050620009ea565b5050565b601f82111562000a5b5762000a2581620008d9565b62000a3084620008ee565b8101602085101562000a40578190505b62000a5862000a4f85620008ee565b830182620009e9565b50505b505050565b600082821c905092915050565b600062000a806000198460080262000a60565b1980831691505092915050565b600062000a9b838362000a6d565b9150826002028217905092915050565b62000ab6826200086a565b67ffffffffffffffff81111562000ad25762000ad16200055c565b5b62000ade8254620008a4565b62000aeb82828562000a10565b600060209050601f83116001811462000b23576000841562000b0e578287015190505b62000b1a858262000a8d565b86555062000b8a565b601f19841662000b3386620008d9565b60005b8281101562000b5d5784890151825560018201915060208501945060208101905062000b36565b8683101562000b7d578489015162000b79601f89168262000a6d565b8355505b6001600288020188555050505b505050505050565b62000b9d8162000405565b82525050565b600060208201905062000bba600083018462000b92565b92915050565b60805160a05160c05160e05161010051610120516133a962000c1e60003960008181610b810152610d7a01526000610e5401526000610e1001526000610e3101526000610dd4015260008181610724015261077801526133a96000f3fe6080604052600436106101665760003560e01c806370a08231116100d1578063a36f573b1161008a578063b88d4fde11610064578063b88d4fde14610531578063c87b56dd1461055a578063e985e9c514610597578063f2fde38b146105d457610166565b8063a36f573b14610499578063a51cccf3146104d6578063aa1524911461051357610166565b806370a082311461039b578063715018a6146103d85780637a5caab3146103ef5780638da5cb5b1461041a57806395d89b4114610445578063a22cb4651461047057610166565b80633af25975116101235780633af259751461028b5780633ccfd60b146102c857806342842e0e146102df5780635dacf5f4146103085780636352211e146103335780636e02007d1461037057610166565b806301ffc9a71461016b57806306fdde03146101a8578063081812fc146101d3578063095ea7b3146102105780631fe543e31461023957806323b872dd14610262575b600080fd5b34801561017757600080fd5b50610192600480360381019061018d9190612472565b6105fd565b60405161019f91906124ba565b60405180910390f35b3480156101b457600080fd5b506101bd61065e565b6040516101ca9190612565565b60405180910390f35b3480156101df57600080fd5b506101fa60048036038101906101f591906125bd565b6106f0565b604051610207919061262b565b60405180910390f35b34801561021c57600080fd5b5061023760048036038101906102329190612672565b61070c565b005b34801561024557600080fd5b50610260600480360381019061025b91906127fa565b610722565b005b34801561026e57600080fd5b5061028960048036038101906102849190612856565b6107e2565b005b34801561029757600080fd5b506102b260048036038101906102ad91906125bd565b6108e4565b6040516102bf9190612565565b60405180910390f35b3480156102d457600080fd5b506102dd610994565b005b3480156102eb57600080fd5b5061030660048036038101906103019190612856565b610a48565b005b34801561031457600080fd5b5061031d610a68565b60405161032a9190612954565b60405180910390f35b34801561033f57600080fd5b5061035a600480360381019061035591906125bd565b610a93565b604051610367919061262b565b60405180910390f35b34801561037c57600080fd5b50610385610aa5565b604051610392919061297e565b60405180910390f35b3480156103a757600080fd5b506103c260048036038101906103bd9190612999565b610aaf565b6040516103cf919061297e565b60405180910390f35b3480156103e457600080fd5b506103ed610b69565b005b3480156103fb57600080fd5b50610404610b7d565b604051610411919061297e565b60405180910390f35b34801561042657600080fd5b5061042f610ba5565b60405161043c919061262b565b60405180910390f35b34801561045157600080fd5b5061045a610bcf565b6040516104679190612565565b60405180910390f35b34801561047c57600080fd5b50610497600480360381019061049291906129f2565b610c61565b005b3480156104a557600080fd5b506104c060048036038101906104bb91906125bd565b610c77565b6040516104cd919061262b565b60405180910390f35b3480156104e257600080fd5b506104fd60048036038101906104f891906125bd565b610caa565b60405161050a9190612aa9565b60405180910390f35b61051b610d76565b604051610528919061297e565b60405180910390f35b34801561053d57600080fd5b5061055860048036038101906105539190612b79565b610f73565b005b34801561056657600080fd5b50610581600480360381019061057c91906125bd565b610f90565b60405161058e9190612565565b60405180910390f35b3480156105a357600080fd5b506105be60048036038101906105b99190612bfc565b6110a3565b6040516105cb91906124ba565b60405180910390f35b3480156105e057600080fd5b506105fb60048036038101906105f69190612999565b611137565b005b6000634906490660e01b7bffffffffffffffffffffffffffffffffffffffffffffffffffffffff1916827bffffffffffffffffffffffffffffffffffffffffffffffffffffffff191614806106575750610656826111bd565b5b9050919050565b60606000805461066d90612c6b565b80601f016020809104026020016040519081016040528092919081815260200182805461069990612c6b565b80156106e65780601f106106bb576101008083540402835291602001916106e6565b820191906000526020600020905b8154815290600101906020018083116106c957829003601f168201915b5050505050905090565b60006106fb8261129f565b5061070582611327565b9050919050565b61071e8282610719611364565b61136c565b5050565b7f000000000000000000000000000000000000000000000000000000000000000073ffffffffffffffffffffffffffffffffffffffff163373ffffffffffffffffffffffffffffffffffffffff16146107d457337f00000000000000000000000000000000000000000000000000000000000000006040517f1cf993f40000000000000000000000000000000000000000000000000000000081526004016107cb929190612c9c565b60405180910390fd5b6107de828261137e565b5050565b600073ffffffffffffffffffffffffffffffffffffffff168273ffffffffffffffffffffffffffffffffffffffff16036108545760006040517f64a0ae9200000000000000000000000000000000000000000000000000000000815260040161084b919061262b565b60405180910390fd5b60006108688383610863611364565b611536565b90508373ffffffffffffffffffffffffffffffffffffffff168173ffffffffffffffffffffffffffffffffffffffff16146108de578382826040517f64283d7b0000000000000000000000000000000000000000000000000000000081526004016108d593929190612cc5565b60405180910390fd5b50505050565b6060600982815481106108fa576108f9612cfc565b5b90600052602060002001805461090f90612c6b565b80601f016020809104026020016040519081016040528092919081815260200182805461093b90612c6b565b80156109885780601f1061095d57610100808354040283529160200191610988565b820191906000526020600020905b81548152906001019060200180831161096b57829003601f168201915b50505050509050919050565b61099c611750565b600047905060003373ffffffffffffffffffffffffffffffffffffffff16826040516109c790612d5c565b60006040518083038185875af1925050503d8060008114610a04576040519150601f19603f3d011682016040523d82523d6000602084013e610a09565b606091505b5050905080610a44576040517fca7e25b700000000000000000000000000000000000000000000000000000000815260040160405180910390fd5b5050565b610a6383838360405180602001604052806000815250610f73565b505050565b610a706123e4565b6040518060600160405280600a8152602001602881526020016064815250905090565b6000610a9e8261129f565b9050919050565b6000600854905090565b60008073ffffffffffffffffffffffffffffffffffffffff168273ffffffffffffffffffffffffffffffffffffffff1603610b225760006040517f89c62b64000000000000000000000000000000000000000000000000000000008152600401610b19919061262b565b60405180910390fd5b600360008373ffffffffffffffffffffffffffffffffffffffff1673ffffffffffffffffffffffffffffffffffffffff168152602001908152602001600020549050919050565b610b71611750565b610b7b60006117d7565b565b60007f0000000000000000000000000000000000000000000000000000000000000000905090565b6000600760009054906101000a900473ffffffffffffffffffffffffffffffffffffffff16905090565b606060018054610bde90612c6b565b80601f0160208091040260200160405190810160405280929190818152602001828054610c0a90612c6b565b8015610c575780601f10610c2c57610100808354040283529160200191610c57565b820191906000526020600020905b815481529060010190602001808311610c3a57829003601f168201915b5050505050905090565b610c73610c6c611364565b838361189d565b5050565b600a6020528060005260406000206000915054906101000a900473ffffffffffffffffffffffffffffffffffffffff1681565b600080600090506000610cbb610a68565b905060005b6003811015610d3e57828510158015610cef5750818160038110610ce757610ce6612cfc565b5b602002015185105b15610d1157806002811115610d0757610d06612a32565b5b9350505050610d71565b818160038110610d2457610d23612cfc565b5b602002015192508080610d3690612da0565b915050610cc0565b506040517f12806c9d00000000000000000000000000000000000000000000000000000000815260040160405180910390fd5b919050565b60007f0000000000000000000000000000000000000000000000000000000000000000341015610dd2576040517fb90f491000000000000000000000000000000000000000000000000000000000815260040160405180910390fd5b7f000000000000000000000000000000000000000000000000000000000000000073ffffffffffffffffffffffffffffffffffffffff16635d3b1d307f00000000000000000000000000000000000000000000000000000000000000007f000000000000000000000000000000000000000000000000000000000000000060037f000000000000000000000000000000000000000000000000000000000000000060016040518663ffffffff1660e01b8152600401610e95959493929190612e60565b6020604051808303816000875af1158015610eb4573d6000803e3d6000fd5b505050506040513d601f19601f82011682018060405250810190610ed89190612ec8565b905033600a600083815260200190815260200160002060006101000a81548173ffffffffffffffffffffffffffffffffffffffff021916908373ffffffffffffffffffffffffffffffffffffffff1602179055503373ffffffffffffffffffffffffffffffffffffffff16817ff873236e6cc0ecc5be1a9a35c95ee5b8d1ac4cc7bfef0cc5060391d6cc98e26b60405160405180910390a390565b610f7e8484846107e2565b610f8a84848484611a0c565b50505050565b6060610f9b8261129f565b506000600660008481526020019081526020016000208054610fbc90612c6b565b80601f0160208091040260200160405190810160405280929190818152602001828054610fe890612c6b565b80156110355780601f1061100a57610100808354040283529160200191611035565b820191906000526020600020905b81548152906001019060200180831161101857829003601f168201915b505050505090506000611046611bc3565b9050600081510361105b57819250505061109e565b600082511115611090578082604051602001611078929190612f31565b6040516020818303038152906040529250505061109e565b61109984611bda565b925050505b919050565b6000600560008473ffffffffffffffffffffffffffffffffffffffff1673ffffffffffffffffffffffffffffffffffffffff16815260200190815260200160002060008373ffffffffffffffffffffffffffffffffffffffff1673ffffffffffffffffffffffffffffffffffffffff16815260200190815260200160002060009054906101000a900460ff16905092915050565b61113f611750565b600073ffffffffffffffffffffffffffffffffffffffff168173ffffffffffffffffffffffffffffffffffffffff16036111b15760006040517f1e4fbdf70000000000000000000000000000000000000000000000000000000081526004016111a8919061262b565b60405180910390fd5b6111ba816117d7565b50565b60007f80ac58cd000000000000000000000000000000000000000000000000000000007bffffffffffffffffffffffffffffffffffffffffffffffffffffffff1916827bffffffffffffffffffffffffffffffffffffffffffffffffffffffff1916148061128857507f5b5e139f000000000000000000000000000000000000000000000000000000007bffffffffffffffffffffffffffffffffffffffffffffffffffffffff1916827bffffffffffffffffffffffffffffffffffffffffffffffffffffffff1916145b80611298575061129782611c43565b5b9050919050565b6000806112ab83611cad565b9050600073ffffffffffffffffffffffffffffffffffffffff168173ffffffffffffffffffffffffffffffffffffffff160361131e57826040517f7e273289000000000000000000000000000000000000000000000000000000008152600401611315919061297e565b60405180910390fd5b80915050919050565b60006004600083815260200190815260200160002060009054906101000a900473ffffffffffffffffffffffffffffffffffffffff169050919050565b600033905090565b6113798383836001611cea565b505050565b6000600a600084815260200190815260200160002060009054906101000a900473ffffffffffffffffffffffffffffffffffffffff1690506000600854905060016008546113cc9190612f55565b60088190555060006064846000815181106113ea576113e9612cfc565b5b60200260200101516113fc9190612fb8565b9050600061140982610caa565b90506114158484611eaf565b6114d783600983600281111561142e5761142d612a32565b5b8154811061143f5761143e612cfc565b5b90600052602060002001805461145490612c6b565b80601f016020809104026020016040519081016040528092919081815260200182805461148090612c6b565b80156114cd5780601f106114a2576101008083540402835291602001916114cd565b820191906000526020600020905b8154815290600101906020018083116114b057829003601f168201915b5050505050611ecd565b8373ffffffffffffffffffffffffffffffffffffffff1681600281111561150157611500612a32565b5b847f826d84de86b9d47351ad75c90b9a8b7211e761e448ccd64623fc26341dd0b8dc60405160405180910390a4505050505050565b60008061154284611cad565b9050600073ffffffffffffffffffffffffffffffffffffffff168373ffffffffffffffffffffffffffffffffffffffff161461158457611583818486611f29565b5b600073ffffffffffffffffffffffffffffffffffffffff168173ffffffffffffffffffffffffffffffffffffffff1614611615576115c6600085600080611cea565b6001600360008373ffffffffffffffffffffffffffffffffffffffff1673ffffffffffffffffffffffffffffffffffffffff168152602001908152602001600020600082825403925050819055505b600073ffffffffffffffffffffffffffffffffffffffff168573ffffffffffffffffffffffffffffffffffffffff1614611698576001600360008773ffffffffffffffffffffffffffffffffffffffff1673ffffffffffffffffffffffffffffffffffffffff168152602001908152602001600020600082825401925050819055505b846002600086815260200190815260200160002060006101000a81548173ffffffffffffffffffffffffffffffffffffffff021916908373ffffffffffffffffffffffffffffffffffffffff160217905550838573ffffffffffffffffffffffffffffffffffffffff168273ffffffffffffffffffffffffffffffffffffffff167fddf252ad1be2c89b69c2b068fc378daa952ba7f163c4a11628f55a4df523b3ef60405160405180910390a4809150509392505050565b611758611364565b73ffffffffffffffffffffffffffffffffffffffff16611776610ba5565b73ffffffffffffffffffffffffffffffffffffffff16146117d557611799611364565b6040517f118cdaa70000000000000000000000000000000000000000000000000000000081526004016117cc919061262b565b60405180910390fd5b565b6000600760009054906101000a900473ffffffffffffffffffffffffffffffffffffffff16905081600760006101000a81548173ffffffffffffffffffffffffffffffffffffffff021916908373ffffffffffffffffffffffffffffffffffffffff1602179055508173ffffffffffffffffffffffffffffffffffffffff168173ffffffffffffffffffffffffffffffffffffffff167f8be0079c531659141344cd1fd0a4f28419497f9722a3daafe3b4186f6b6457e060405160405180910390a35050565b600073ffffffffffffffffffffffffffffffffffffffff168273ffffffffffffffffffffffffffffffffffffffff160361190e57816040517f5b08ba18000000000000000000000000000000000000000000000000000000008152600401611905919061262b565b60405180910390fd5b80600560008573ffffffffffffffffffffffffffffffffffffffff1673ffffffffffffffffffffffffffffffffffffffff16815260200190815260200160002060008473ffffffffffffffffffffffffffffffffffffffff1673ffffffffffffffffffffffffffffffffffffffff16815260200190815260200160002060006101000a81548160ff0219169083151502179055508173ffffffffffffffffffffffffffffffffffffffff168373ffffffffffffffffffffffffffffffffffffffff167f17307eab39ab6107e8899845ad3d59bd9653f200f220920489ca2b5937696c31836040516119ff91906124ba565b60405180910390a3505050565b60008373ffffffffffffffffffffffffffffffffffffffff163b1115611bbd578273ffffffffffffffffffffffffffffffffffffffff1663150b7a02611a50611364565b8685856040518563ffffffff1660e01b8152600401611a72949392919061303e565b6020604051808303816000875af1925050508015611aae57506040513d601f19601f82011682018060405250810190611aab919061309f565b60015b611b32573d8060008114611ade576040519150601f19603f3d011682016040523d82523d6000602084013e611ae3565b606091505b506000815103611b2a57836040517f64a0ae92000000000000000000000000000000000000000000000000000000008152600401611b21919061262b565b60405180910390fd5b805181602001fd5b63150b7a0260e01b7bffffffffffffffffffffffffffffffffffffffffffffffffffffffff1916817bffffffffffffffffffffffffffffffffffffffffffffffffffffffff191614611bbb57836040517f64a0ae92000000000000000000000000000000000000000000000000000000008152600401611bb2919061262b565b60405180910390fd5b505b50505050565b606060405180602001604052806000815250905090565b6060611be58261129f565b506000611bf0611bc3565b90506000815111611c105760405180602001604052806000815250611c3b565b80611c1a84611fed565b604051602001611c2b929190612f31565b6040516020818303038152906040525b915050919050565b60007f01ffc9a7000000000000000000000000000000000000000000000000000000007bffffffffffffffffffffffffffffffffffffffffffffffffffffffff1916827bffffffffffffffffffffffffffffffffffffffffffffffffffffffff1916149050919050565b60006002600083815260200190815260200160002060009054906101000a900473ffffffffffffffffffffffffffffffffffffffff169050919050565b8080611d235750600073ffffffffffffffffffffffffffffffffffffffff168273ffffffffffffffffffffffffffffffffffffffff1614155b15611e57576000611d338461129f565b9050600073ffffffffffffffffffffffffffffffffffffffff168373ffffffffffffffffffffffffffffffffffffffff1614158015611d9e57508273ffffffffffffffffffffffffffffffffffffffff168173ffffffffffffffffffffffffffffffffffffffff1614155b8015611db15750611daf81846110a3565b155b15611df357826040517fa9fbf51f000000000000000000000000000000000000000000000000000000008152600401611dea919061262b565b60405180910390fd5b8115611e5557838573ffffffffffffffffffffffffffffffffffffffff168273ffffffffffffffffffffffffffffffffffffffff167f8c5be1e5ebec7d5bd14f71427d1e84f3dd0314c0f7b2291e5b200ac8c7c3b92560405160405180910390a45b505b836004600085815260200190815260200160002060006101000a81548173ffffffffffffffffffffffffffffffffffffffff021916908373ffffffffffffffffffffffffffffffffffffffff16021790555050505050565b611ec98282604051806020016040528060008152506120bb565b5050565b80600660008481526020019081526020016000209081611eed9190613278565b507ff8e1a15aba9398e019f0b49df1a4fde98ee17ae345cb5f6b5e2c27f5033e8ce782604051611f1d919061297e565b60405180910390a15050565b611f348383836120d7565b611fe857600073ffffffffffffffffffffffffffffffffffffffff168373ffffffffffffffffffffffffffffffffffffffff1603611fa957806040517f7e273289000000000000000000000000000000000000000000000000000000008152600401611fa0919061297e565b60405180910390fd5b81816040517f177e802f000000000000000000000000000000000000000000000000000000008152600401611fdf92919061334a565b60405180910390fd5b505050565b606060006001611ffc84612198565b01905060008167ffffffffffffffff81111561201b5761201a6126b7565b5b6040519080825280601f01601f19166020018201604052801561204d5781602001600182028036833780820191505090505b509050600082602001820190505b6001156120b0578080600190039150507f3031323334353637383961626364656600000000000000000000000000000000600a86061a8153600a85816120a4576120a3612f89565b5b0494506000850361205b575b819350505050919050565b6120c583836122eb565b6120d26000848484611a0c565b505050565b60008073ffffffffffffffffffffffffffffffffffffffff168373ffffffffffffffffffffffffffffffffffffffff161415801561218f57508273ffffffffffffffffffffffffffffffffffffffff168473ffffffffffffffffffffffffffffffffffffffff161480612150575061214f84846110a3565b5b8061218e57508273ffffffffffffffffffffffffffffffffffffffff1661217683611327565b73ffffffffffffffffffffffffffffffffffffffff16145b5b90509392505050565b600080600090507a184f03e93ff9f4daa797ed6e38ed64bf6a1f01000000000000000083106121f6577a184f03e93ff9f4daa797ed6e38ed64bf6a1f01000000000000000083816121ec576121eb612f89565b5b0492506040810190505b6d04ee2d6d415b85acef81000000008310612233576d04ee2d6d415b85acef8100000000838161222957612228612f89565b5b0492506020810190505b662386f26fc10000831061226257662386f26fc10000838161225857612257612f89565b5b0492506010810190505b6305f5e100831061228b576305f5e100838161228157612280612f89565b5b0492506008810190505b61271083106122b05761271083816122a6576122a5612f89565b5b0492506004810190505b606483106122d357606483816122c9576122c8612f89565b5b0492506002810190505b600a83106122e2576001810190505b80915050919050565b600073ffffffffffffffffffffffffffffffffffffffff168273ffffffffffffffffffffffffffffffffffffffff160361235d5760006040517f64a0ae92000000000000000000000000000000000000000000000000000000008152600401612354919061262b565b60405180910390fd5b600061236b83836000611536565b9050600073ffffffffffffffffffffffffffffffffffffffff168173ffffffffffffffffffffffffffffffffffffffff16146123df5760006040517f73c6ac6e0000000000000000000000000000000000000000000000000000000081526004016123d6919061262b565b60405180910390fd5b505050565b6040518060600160405280600390602082028036833780820191505090505090565b6000604051905090565b600080fd5b600080fd5b60007fffffffff0000000000000000000000000000000000000000000000000000000082169050919050565b61244f8161241a565b811461245a57600080fd5b50565b60008135905061246c81612446565b92915050565b60006020828403121561248857612487612410565b5b60006124968482850161245d565b91505092915050565b60008115159050919050565b6124b48161249f565b82525050565b60006020820190506124cf60008301846124ab565b92915050565b600081519050919050565b600082825260208201905092915050565b60005b8381101561250f5780820151818401526020810190506124f4565b60008484015250505050565b6000601f19601f8301169050919050565b6000612537826124d5565b61254181856124e0565b93506125518185602086016124f1565b61255a8161251b565b840191505092915050565b6000602082019050818103600083015261257f818461252c565b905092915050565b6000819050919050565b61259a81612587565b81146125a557600080fd5b50565b6000813590506125b781612591565b92915050565b6000602082840312156125d3576125d2612410565b5b60006125e1848285016125a8565b91505092915050565b600073ffffffffffffffffffffffffffffffffffffffff82169050919050565b6000612615826125ea565b9050919050565b6126258161260a565b82525050565b6000602082019050612640600083018461261c565b92915050565b61264f8161260a565b811461265a57600080fd5b50565b60008135905061266c81612646565b92915050565b6000806040838503121561268957612688612410565b5b60006126978582860161265d565b92505060206126a8858286016125a8565b9150509250929050565b600080fd5b7f4e487b7100000000000000000000000000000000000000000000000000000000600052604160045260246000fd5b6126ef8261251b565b810181811067ffffffffffffffff8211171561270e5761270d6126b7565b5b80604052505050565b6000612721612406565b905061272d82826126e6565b919050565b600067ffffffffffffffff82111561274d5761274c6126b7565b5b602082029050602081019050919050565b600080fd5b600061277661277184612732565b612717565b905080838252602082019050602084028301858111156127995761279861275e565b5b835b818110156127c257806127ae88826125a8565b84526020840193505060208101905061279b565b5050509392505050565b600082601f8301126127e1576127e06126b2565b5b81356127f1848260208601612763565b91505092915050565b6000806040838503121561281157612810612410565b5b600061281f858286016125a8565b925050602083013567ffffffffffffffff8111156128405761283f612415565b5b61284c858286016127cc565b9150509250929050565b60008060006060848603121561286f5761286e612410565b5b600061287d8682870161265d565b935050602061288e8682870161265d565b925050604061289f868287016125a8565b9150509250925092565b600060039050919050565b600081905092915050565b6000819050919050565b6128d281612587565b82525050565b60006128e483836128c9565b60208301905092915050565b6000602082019050919050565b612906816128a9565b61291081846128b4565b925061291b826128bf565b8060005b8381101561294c57815161293387826128d8565b965061293e836128f0565b92505060018101905061291f565b505050505050565b600060608201905061296960008301846128fd565b92915050565b61297881612587565b82525050565b6000602082019050612993600083018461296f565b92915050565b6000602082840312156129af576129ae612410565b5b60006129bd8482850161265d565b91505092915050565b6129cf8161249f565b81146129da57600080fd5b50565b6000813590506129ec816129c6565b92915050565b60008060408385031215612a0957612a08612410565b5b6000612a178582860161265d565b9250506020612a28858286016129dd565b9150509250929050565b7f4e487b7100000000000000000000000000000000000000000000000000000000600052602160045260246000fd5b60038110612a7257612a71612a32565b5b50565b6000819050612a8382612a61565b919050565b6000612a9382612a75565b9050919050565b612aa381612a88565b82525050565b6000602082019050612abe6000830184612a9a565b92915050565b600080fd5b600067ffffffffffffffff821115612ae457612ae36126b7565b5b612aed8261251b565b9050602081019050919050565b82818337600083830152505050565b6000612b1c612b1784612ac9565b612717565b905082815260208101848484011115612b3857612b37612ac4565b5b612b43848285612afa565b509392505050565b600082601f830112612b6057612b5f6126b2565b5b8135612b70848260208601612b09565b91505092915050565b60008060008060808587031215612b9357612b92612410565b5b6000612ba18782880161265d565b9450506020612bb28782880161265d565b9350506040612bc3878288016125a8565b925050606085013567ffffffffffffffff811115612be457612be3612415565b5b612bf087828801612b4b565b91505092959194509250565b60008060408385031215612c1357612c12612410565b5b6000612c218582860161265d565b9250506020612c328582860161265d565b9150509250929050565b7f4e487b7100000000000000000000000000000000000000000000000000000000600052602260045260246000fd5b60006002820490506001821680612c8357607f821691505b602082108103612c9657612c95612c3c565b5b50919050565b6000604082019050612cb1600083018561261c565b612cbe602083018461261c565b9392505050565b6000606082019050612cda600083018661261c565b612ce7602083018561296f565b612cf4604083018461261c565b949350505050565b7f4e487b7100000000000000000000000000000000000000000000000000000000600052603260045260246000fd5b600081905092915050565b50565b6000612d46600083612d2b565b9150612d5182612d36565b600082019050919050565b6000612d6782612d39565b9150819050919050565b7f4e487b7100000000000000000000000000000000000000000000000000000000600052601160045260246000fd5b6000612dab82612587565b91507fffffffffffffffffffffffffffffffffffffffffffffffffffffffffffffffff8203612ddd57612ddc612d71565b5b600182019050919050565b6000819050919050565b612dfb81612de8565b82525050565b600067ffffffffffffffff82169050919050565b612e1e81612e01565b82525050565b600061ffff82169050919050565b612e3b81612e24565b82525050565b600063ffffffff82169050919050565b612e5a81612e41565b82525050565b600060a082019050612e756000830188612df2565b612e826020830187612e15565b612e8f6040830186612e32565b612e9c6060830185612e51565b612ea96080830184612e51565b9695505050505050565b600081519050612ec281612591565b92915050565b600060208284031215612ede57612edd612410565b5b6000612eec84828501612eb3565b91505092915050565b600081905092915050565b6000612f0b826124d5565b612f158185612ef5565b9350612f258185602086016124f1565b80840191505092915050565b6000612f3d8285612f00565b9150612f498284612f00565b91508190509392505050565b6000612f6082612587565b9150612f6b83612587565b9250828201905080821115612f8357612f82612d71565b5b92915050565b7f4e487b7100000000000000000000000000000000000000000000000000000000600052601260045260246000fd5b6000612fc382612587565b9150612fce83612587565b925082612fde57612fdd612f89565b5b828206905092915050565b600081519050919050565b600082825260208201905092915050565b600061301082612fe9565b61301a8185612ff4565b935061302a8185602086016124f1565b6130338161251b565b840191505092915050565b6000608082019050613053600083018761261c565b613060602083018661261c565b61306d604083018561296f565b818103606083015261307f8184613005565b905095945050505050565b60008151905061309981612446565b92915050565b6000602082840312156130b5576130b4612410565b5b60006130c38482850161308a565b91505092915050565b60008190508160005260206000209050919050565b60006020601f8301049050919050565b600082821b905092915050565b60006008830261312e7fffffffffffffffffffffffffffffffffffffffffffffffffffffffffffffffff826130f1565b61313886836130f1565b95508019841693508086168417925050509392505050565b6000819050919050565b600061317561317061316b84612587565b613150565b612587565b9050919050565b6000819050919050565b61318f8361315a565b6131a361319b8261317c565b8484546130fe565b825550505050565b600090565b6131b86131ab565b6131c3818484613186565b505050565b5b818110156131e7576131dc6000826131b0565b6001810190506131c9565b5050565b601f82111561322c576131fd816130cc565b613206846130e1565b81016020851015613215578190505b613229613221856130e1565b8301826131c8565b50505b505050565b600082821c905092915050565b600061324f60001984600802613231565b1980831691505092915050565b6000613268838361323e565b9150826002028217905092915050565b613281826124d5565b67ffffffffffffffff81111561329a576132996126b7565b5b6132a48254612c6b565b6132af8282856131eb565b600060209050601f8311600181146132e257600084156132d0578287015190505b6132da858261325c565b865550613342565b601f1984166132f0866130cc565b60005b82811015613318578489015182556001820191506020850194506020810190506132f3565b868310156133355784890151613331601f89168261323e565b8355505b6001600288020188555050505b505050505050565b600060408201905061335f600083018561261c565b61336c602083018461296f565b939250505056fea26469706673582212200c0fa4e06fa76e25823fb5764a3ffae8f14730d90ef2e41428002ec8557ee3cc64736f6c63430008140033",
  "devdoc": {
    "errors": {
      "ERC721IncorrectOwner(address,uint256,address)": [
        {
          "details": "Indicates an error related to the ownership over a particular token. Used in transfers.",
          "params": {
            "owner": "Address of the current owner of a token.",
            "sender": "Address whose tokens are being transferred.",
            "tokenId": "Identifier number of a token."
          }
        }
      ],
      "ERC721InsufficientApproval(address,uint256)": [
        {
          "details": "Indicates a failure with the `operator`s approval. Used in transfers.",
          "params": {
            "operator": "Address that may be allowed to operate on tokens without being their owner.",
            "tokenId": "Identifier number of a token."
          }
        }
      ],
      "ERC721InvalidApprover(address)": [
        {
          "details": "Indicates a failure with the `approver` of a token to be approved. Used in approvals.",
          "params": {
            "approver": "Address initiating an approval operation."
          }
        }
      ],
      "ERC721InvalidOperator(address)": [
        {
          "details": "Indicates a failure with the `operator` to be approved. Used in approvals.",
          "params": {
            "operator": "Address that may be allowed to operate on tokens without being their owner."
          }
        }
      ],
      "ERC721InvalidOwner(address)": [
        {
          "details": "Indicates that an address can't be an owner. For example, `address(0)` is a forbidden owner in EIP-20. Used in balance queries.",
          "params": {
            "owner": "Address of the current owner of a token."
          }
        }
      ],
      "ERC721InvalidReceiver(address)": [
        {
          "details": "Indicates a failure with the token `receiver`. Used in transfers.",
          "params": {
            "receiver": "Address to which tokens are being transferred."
          }
        }
      ],
      "ERC721InvalidSender(address)": [
        {
          "details": "Indicates a failure with the token `sender`. Used in transfers.",
          "params": {
            "sender": "Address whose tokens are being transferred."
          }
        }
      ],
      "ERC721NonexistentToken(uint256)": [
        {
          "details": "Indicates a `tokenId` whose `owner` is the zero address.",
          "params": {
            "tokenId": "Identifier number of a token."
          }
        }
      ],
      "OwnableInvalidOwner(address)": [
        {
          "details": "The owner is not a valid owner account. (eg. `address(0)`)"
        }
      ],
      "OwnableUnauthorizedAccount(address)": [
        {
          "details": "The caller account is not authorized to perform an operation."
        }
      ]
    },
    "events": {
      "Approval(address,address,uint256)": {
        "details": "Emitted when `owner` enables `approved` to manage the `tokenId` token."
      },
      "ApprovalForAll(address,address,bool)": {
        "details": "Emitted when `owner` enables or disables (`approved`) `operator` to manage all of its assets."
      },
      "BatchMetadataUpdate(uint256,uint256)": {
        "details": "This event emits when the metadata of a range of tokens is changed. So that the third-party platforms such as NFT market could timely update the images and related attributes of the NFTs."
      },
      "MetadataUpdate(uint256)": {
        "details": "This event emits when the metadata of a token is changed. So that the third-party platforms such as NFT market could timely update the images and related attributes of the NFT."
      },
      "Transfer(address,address,uint256)": {
        "details": "Emitted when `tokenId` token is transferred from `from` to `to`."
      }
    },
    "kind": "dev",
    "methods": {
      "approve(address,uint256)": {
        "details": "See {IERC721-approve}."
      },
      "balanceOf(address)": {
        "details": "See {IERC721-balanceOf}."
      },
      "getApproved(uint256)": {
        "details": "See {IERC721-getApproved}."
      },
      "isApprovedForAll(address,address)": {
        "details": "See {IERC721-isApprovedForAll}."
      },
      "name()": {
        "details": "See {IERC721Metadata-name}."
      },
      "owner()": {
        "details": "Returns the address of the current owner."
      },
      "ownerOf(uint256)": {
        "details": "See {IERC721-ownerOf}."
      },
      "renounceOwnership()": {
        "details": "Leaves the contract without owner. It will not be possible to call `onlyOwner` functions. Can only be called by the current owner. NOTE: Renouncing ownership will leave the contract without an owner, thereby disabling any functionality that is only available to the owner."
      },
      "safeTransferFrom(address,address,uint256)": {
        "details": "See {IERC721-safeTransferFrom}."
      },
      "safeTransferFrom(address,address,uint256,bytes)": {
        "details": "See {IERC721-safeTransferFrom}."
      },
      "setApprovalForAll(address,bool)": {
        "details": "See {IERC721-setApprovalForAll}."
      },
      "supportsInterface(bytes4)": {
        "details": "See {IERC165-supportsInterface}"
      },
      "symbol()": {
        "details": "See {IERC721Metadata-symbol}."
      },
      "tokenURI(uint256)": {
        "details": "See {IERC721Metadata-tokenURI}."
      },
      "transferFrom(address,address,uint256)": {
        "details": "See {IERC721-transferFrom}."
      },
      "transferOwnership(address)": {
        "details": "Transfers ownership of the contract to a new account (`newOwner`). Can only be called by the current owner."
      }
    },
    "version": 1
  },
  "userdoc": {
    "kind": "user",
    "methods": {},
    "version": 1
  },
  "storageLayout": {
    "storage": [
      {
        "astId": 1726,
        "contract": "contracts/RandomIpfsNft.sol:RandomIpfsNft",
        "label": "_name",
        "offset": 0,
        "slot": "0",
        "type": "t_string_storage"
      },
      {
        "astId": 1728,
        "contract": "contracts/RandomIpfsNft.sol:RandomIpfsNft",
        "label": "_symbol",
        "offset": 0,
        "slot": "1",
        "type": "t_string_storage"
      },
      {
        "astId": 1732,
        "contract": "contracts/RandomIpfsNft.sol:RandomIpfsNft",
        "label": "_owners",
        "offset": 0,
        "slot": "2",
        "type": "t_mapping(t_uint256,t_address)"
      },
      {
        "astId": 1736,
        "contract": "contracts/RandomIpfsNft.sol:RandomIpfsNft",
        "label": "_balances",
        "offset": 0,
        "slot": "3",
        "type": "t_mapping(t_address,t_uint256)"
      },
      {
        "astId": 1740,
        "contract": "contracts/RandomIpfsNft.sol:RandomIpfsNft",
        "label": "_tokenApprovals",
        "offset": 0,
        "slot": "4",
        "type": "t_mapping(t_uint256,t_address)"
      },
      {
        "astId": 1746,
        "contract": "contracts/RandomIpfsNft.sol:RandomIpfsNft",
        "label": "_operatorApprovals",
        "offset": 0,
        "slot": "5",
        "type": "t_mapping(t_address,t_mapping(t_address,t_bool))"
      },
      {
        "astId": 2865,
        "contract": "contracts/RandomIpfsNft.sol:RandomIpfsNft",
        "label": "_tokenURIs",
        "offset": 0,
        "slot": "6",
        "type": "t_mapping(t_uint256,t_string_storage)"
      },
      {
        "astId": 1385,
        "contract": "contracts/RandomIpfsNft.sol:RandomIpfsNft",
        "label": "_owner",
        "offset": 0,
        "slot": "7",
        "type": "t_address"
      },
      {
        "astId": 4572,
        "contract": "contracts/RandomIpfsNft.sol:RandomIpfsNft",
        "label": "s_tokenCounter",
        "offset": 0,
        "slot": "8",
        "type": "t_uint256"
      },
      {
        "astId": 4578,
        "contract": "contracts/RandomIpfsNft.sol:RandomIpfsNft",
        "label": "s_dogTokenUris",
        "offset": 0,
        "slot": "9",
        "type": "t_array(t_string_storage)dyn_storage"
      },
      {
        "astId": 4582,
        "contract": "contracts/RandomIpfsNft.sol:RandomIpfsNft",
        "label": "s_requestIdToSender",
        "offset": 0,
        "slot": "10",
        "type": "t_mapping(t_uint256,t_address)"
      }
    ],
    "types": {
      "t_address": {
        "encoding": "inplace",
        "label": "address",
        "numberOfBytes": "20"
      },
      "t_array(t_string_storage)dyn_storage": {
        "base": "t_string_storage",
        "encoding": "dynamic_array",
        "label": "string[]",
        "numberOfBytes": "32"
      },
      "t_bool": {
        "encoding": "inplace",
        "label": "bool",
        "numberOfBytes": "1"
      },
      "t_mapping(t_address,t_bool)": {
        "encoding": "mapping",
        "key": "t_address",
        "label": "mapping(address => bool)",
        "numberOfBytes": "32",
        "value": "t_bool"
      },
      "t_mapping(t_address,t_mapping(t_address,t_bool))": {
        "encoding": "mapping",
        "key": "t_address",
        "label": "mapping(address => mapping(address => bool))",
        "numberOfBytes": "32",
        "value": "t_mapping(t_address,t_bool)"
      },
      "t_mapping(t_address,t_uint256)": {
        "encoding": "mapping",
        "key": "t_address",
        "label": "mapping(address => uint256)",
        "numberOfBytes": "32",
        "value": "t_uint256"
      },
      "t_mapping(t_uint256,t_address)": {
        "encoding": "mapping",
        "key": "t_uint256",
        "label": "mapping(uint256 => address)",
        "numberOfBytes": "32",
        "value": "t_address"
      },
      "t_mapping(t_uint256,t_string_storage)": {
        "encoding": "mapping",
        "key": "t_uint256",
        "label": "mapping(uint256 => string)",
        "numberOfBytes": "32",
        "value": "t_string_storage"
      },
      "t_string_storage": {
        "encoding": "bytes",
        "label": "string",
        "numberOfBytes": "32"
      },
      "t_uint256": {
        "encoding": "inplace",
        "label": "uint256",
        "numberOfBytes": "32"
      }
    }
  }
}